{
  "contractName": "Digilance",
  "abi": [
    {
      "inputs": [
        {
          "internalType": "contract FLTToken",
          "name": "_fltToken",
          "type": "address"
        },
        {
          "internalType": "contract Ether",
          "name": "_etherToken",
          "type": "address"
        }
      ],
      "stateMutability": "nonpayable",
      "type": "constructor"
    },
    {
      "anonymous": false,
      "inputs": [
        {
          "indexed": false,
          "internalType": "address",
          "name": "buyer",
          "type": "address"
        },
        {
          "indexed": false,
          "internalType": "uint256",
          "name": "etherAmount",
          "type": "uint256"
        },
        {
          "indexed": false,
          "internalType": "uint256",
          "name": "FLTAmount",
          "type": "uint256"
        },
        {
          "indexed": false,
          "internalType": "uint256",
          "name": "timestamp",
          "type": "uint256"
        }
      ],
      "name": "FLTPurchased",
      "type": "event"
    },
    {
      "anonymous": false,
      "inputs": [
        {
          "indexed": false,
          "internalType": "uint256",
          "name": "requestId",
          "type": "uint256"
        },
        {
          "indexed": false,
          "internalType": "string",
          "name": "title",
          "type": "string"
        },
        {
          "indexed": false,
          "internalType": "uint256",
          "name": "reward",
          "type": "uint256"
        },
        {
          "indexed": false,
          "internalType": "address payable",
          "name": "client",
          "type": "address"
        },
        {
          "indexed": false,
          "internalType": "address payable",
          "name": "freelancer",
          "type": "address"
        },
        {
          "indexed": false,
          "internalType": "enum Digilance.Status",
          "name": "status",
          "type": "uint8"
        }
      ],
      "name": "ServiceRequestAccepted",
      "type": "event"
    },
    {
      "anonymous": false,
      "inputs": [
        {
          "indexed": false,
          "internalType": "uint256",
          "name": "id",
          "type": "uint256"
        },
        {
          "indexed": false,
          "internalType": "string",
          "name": "title",
          "type": "string"
        },
        {
          "indexed": false,
          "internalType": "string",
          "name": "description",
          "type": "string"
        },
        {
          "indexed": false,
          "internalType": "string",
          "name": "category",
          "type": "string"
        },
        {
          "indexed": false,
          "internalType": "uint256",
          "name": "reward",
          "type": "uint256"
        },
        {
          "indexed": false,
          "internalType": "address payable",
          "name": "client",
          "type": "address"
        },
        {
          "indexed": false,
          "internalType": "uint256",
          "name": "deadline",
          "type": "uint256"
        },
        {
          "indexed": false,
          "internalType": "uint256",
          "name": "createdAt",
          "type": "uint256"
        }
      ],
      "name": "ServiceRequestCreated",
      "type": "event"
    },
    {
      "anonymous": false,
      "inputs": [
        {
          "indexed": true,
          "internalType": "uint256",
          "name": "workId",
          "type": "uint256"
        },
        {
          "indexed": true,
          "internalType": "address",
          "name": "voter",
          "type": "address"
        },
        {
          "indexed": false,
          "internalType": "bool",
          "name": "isApproval",
          "type": "bool"
        }
      ],
      "name": "VoteCasted",
      "type": "event"
    },
    {
      "anonymous": false,
      "inputs": [
        {
          "indexed": false,
          "internalType": "uint256",
          "name": "id",
          "type": "uint256"
        },
        {
          "indexed": false,
          "internalType": "string",
          "name": "title",
          "type": "string"
        },
        {
          "indexed": false,
          "internalType": "string",
          "name": "description",
          "type": "string"
        },
        {
          "indexed": false,
          "internalType": "string",
          "name": "category",
          "type": "string"
        },
        {
          "indexed": false,
          "internalType": "uint256",
          "name": "reward",
          "type": "uint256"
        },
        {
          "indexed": false,
          "internalType": "address payable",
          "name": "client",
          "type": "address"
        },
        {
          "indexed": false,
          "internalType": "address payable",
          "name": "freelancer",
          "type": "address"
        },
        {
          "indexed": false,
          "internalType": "enum Digilance.Status",
          "name": "status",
          "type": "uint8"
        }
      ],
      "name": "WorkAccepted",
      "type": "event"
    },
    {
      "anonymous": false,
      "inputs": [
        {
          "indexed": false,
          "internalType": "uint256",
          "name": "workId",
          "type": "uint256"
        },
        {
          "indexed": false,
          "internalType": "string",
          "name": "title",
          "type": "string"
        },
        {
          "indexed": false,
          "internalType": "uint256",
          "name": "reward",
          "type": "uint256"
        },
        {
          "indexed": false,
          "internalType": "uint256",
          "name": "deadline",
          "type": "uint256"
        },
        {
          "indexed": false,
          "internalType": "string",
          "name": "url",
          "type": "string"
        },
        {
          "indexed": false,
          "internalType": "address payable",
          "name": "freelancer",
          "type": "address"
        },
        {
          "indexed": false,
          "internalType": "address payable",
          "name": "client",
          "type": "address"
        }
      ],
      "name": "WorkAccepted",
      "type": "event"
    },
    {
      "anonymous": false,
      "inputs": [
        {
          "indexed": false,
          "internalType": "uint256",
          "name": "id",
          "type": "uint256"
        },
        {
          "indexed": false,
          "internalType": "string",
          "name": "title",
          "type": "string"
        },
        {
          "indexed": false,
          "internalType": "address",
          "name": "reviewer",
          "type": "address"
        }
      ],
      "name": "WorkApproved",
      "type": "event"
    },
    {
      "anonymous": false,
      "inputs": [
        {
          "indexed": false,
          "internalType": "uint256",
          "name": "workId",
          "type": "uint256"
        },
        {
          "indexed": false,
          "internalType": "string",
          "name": "title",
          "type": "string"
        },
        {
          "indexed": false,
          "internalType": "uint256",
          "name": "reward",
          "type": "uint256"
        },
        {
          "indexed": false,
          "internalType": "uint256",
          "name": "deadline",
          "type": "uint256"
        },
        {
          "indexed": false,
          "internalType": "string",
          "name": "url",
          "type": "string"
        },
        {
          "indexed": false,
          "internalType": "address payable",
          "name": "freelancer",
          "type": "address"
        },
        {
          "indexed": false,
          "internalType": "address payable",
          "name": "client",
          "type": "address"
        },
        {
          "indexed": false,
          "internalType": "uint256",
          "name": "submittedAt",
          "type": "uint256"
        }
      ],
      "name": "WorkSubmitted",
      "type": "event"
    },
    {
      "inputs": [
        {
          "internalType": "address",
          "name": "",
          "type": "address"
        }
      ],
      "name": "accountTypes",
      "outputs": [
        {
          "internalType": "string",
          "name": "",
          "type": "string"
        }
      ],
      "stateMutability": "view",
      "type": "function"
    },
    {
      "inputs": [],
      "name": "name",
      "outputs": [
        {
          "internalType": "string",
          "name": "",
          "type": "string"
        }
      ],
      "stateMutability": "view",
      "type": "function"
    },
    {
      "inputs": [],
      "name": "owner",
      "outputs": [
        {
          "internalType": "address",
          "name": "",
          "type": "address"
        }
      ],
      "stateMutability": "view",
      "type": "function"
    },
    {
      "inputs": [
        {
          "internalType": "uint256",
          "name": "",
          "type": "uint256"
        }
      ],
      "name": "requestedTitles",
      "outputs": [
        {
          "internalType": "string",
          "name": "",
          "type": "string"
        }
      ],
      "stateMutability": "view",
      "type": "function"
    },
    {
      "inputs": [
        {
          "internalType": "string",
          "name": "",
          "type": "string"
        }
      ],
      "name": "serviceRequests",
      "outputs": [
        {
          "internalType": "uint256",
          "name": "id",
          "type": "uint256"
        },
        {
          "internalType": "string",
          "name": "title",
          "type": "string"
        },
        {
          "internalType": "string",
          "name": "description",
          "type": "string"
        },
        {
          "internalType": "string",
          "name": "category",
          "type": "string"
        },
        {
          "internalType": "address payable",
          "name": "client",
          "type": "address"
        },
        {
          "internalType": "address payable",
          "name": "freelancer",
          "type": "address"
        },
        {
          "internalType": "uint256",
          "name": "reward",
          "type": "uint256"
        },
        {
          "internalType": "uint256",
          "name": "deadline",
          "type": "uint256"
        },
        {
          "internalType": "uint256",
          "name": "createdAt",
          "type": "uint256"
        },
        {
          "internalType": "enum Digilance.Status",
          "name": "status",
          "type": "uint8"
        }
      ],
      "stateMutability": "view",
      "type": "function"
    },
    {
      "inputs": [],
      "name": "serviceRequestsCount",
      "outputs": [
        {
          "internalType": "uint256",
          "name": "",
          "type": "uint256"
        }
      ],
      "stateMutability": "view",
      "type": "function"
    },
    {
      "inputs": [],
      "name": "servicesCount",
      "outputs": [
        {
          "internalType": "uint256",
          "name": "",
          "type": "uint256"
        }
      ],
      "stateMutability": "view",
      "type": "function"
    },
    {
      "inputs": [
        {
          "internalType": "address",
          "name": "",
          "type": "address"
        },
        {
          "internalType": "uint256",
          "name": "",
          "type": "uint256"
        }
      ],
      "name": "userTitles",
      "outputs": [
        {
          "internalType": "string",
          "name": "",
          "type": "string"
        }
      ],
      "stateMutability": "view",
      "type": "function"
    },
    {
      "inputs": [
        {
          "internalType": "address",
          "name": "",
          "type": "address"
        }
      ],
      "name": "voterList",
      "outputs": [
        {
          "internalType": "uint256",
          "name": "rank",
          "type": "uint256"
        },
        {
          "internalType": "uint256",
          "name": "reputation",
          "type": "uint256"
        },
        {
          "internalType": "uint256",
          "name": "totalVotes",
          "type": "uint256"
        }
      ],
      "stateMutability": "view",
      "type": "function"
    },
    {
      "inputs": [
        {
          "internalType": "address",
          "name": "",
          "type": "address"
        }
      ],
      "name": "voters",
      "outputs": [
        {
          "internalType": "bool",
          "name": "",
          "type": "bool"
        }
      ],
      "stateMutability": "view",
      "type": "function"
    },
    {
      "inputs": [],
      "name": "getAllServices",
      "outputs": [
        {
          "components": [
            {
              "internalType": "uint256",
              "name": "id",
              "type": "uint256"
            },
            {
              "internalType": "string",
              "name": "title",
              "type": "string"
            },
            {
              "internalType": "string",
              "name": "description",
              "type": "string"
            },
            {
              "internalType": "string",
              "name": "category",
              "type": "string"
            },
            {
              "internalType": "address",
              "name": "freelancer",
              "type": "address"
            },
            {
              "internalType": "address",
              "name": "client",
              "type": "address"
            },
            {
              "internalType": "uint256",
              "name": "reward",
              "type": "uint256"
            },
            {
              "internalType": "uint256",
              "name": "deadline",
              "type": "uint256"
            },
            {
              "internalType": "uint256",
              "name": "createdAt",
              "type": "uint256"
            },
            {
              "internalType": "string",
              "name": "url",
              "type": "string"
            },
            {
              "internalType": "enum Digilance.Status",
              "name": "status",
              "type": "uint8"
            },
            {
              "internalType": "uint256",
              "name": "positiveVotes",
              "type": "uint256"
            },
            {
              "internalType": "uint256",
              "name": "negativeVotes",
              "type": "uint256"
            }
          ],
          "internalType": "struct Digilance.Service[]",
          "name": "",
          "type": "tuple[]"
        }
      ],
      "stateMutability": "view",
      "type": "function"
    },
    {
      "inputs": [],
      "name": "getAccountType",
      "outputs": [
        {
          "internalType": "string",
          "name": "",
          "type": "string"
        }
      ],
      "stateMutability": "view",
      "type": "function"
    },
    {
      "inputs": [
        {
          "internalType": "string",
          "name": "accountType",
          "type": "string"
        }
      ],
      "name": "setAccountType",
      "outputs": [],
      "stateMutability": "nonpayable",
      "type": "function"
    },
    {
      "inputs": [
        {
          "internalType": "address",
          "name": "user",
          "type": "address"
        }
      ],
      "name": "getAllUserTitles",
      "outputs": [
        {
          "internalType": "string[]",
          "name": "",
          "type": "string[]"
        }
      ],
      "stateMutability": "view",
      "type": "function"
    },
    {
      "inputs": [],
      "name": "getAllWorks",
      "outputs": [
        {
          "components": [
            {
              "internalType": "uint256",
              "name": "id",
              "type": "uint256"
            },
            {
              "internalType": "string",
              "name": "title",
              "type": "string"
            },
            {
              "internalType": "string",
              "name": "description",
              "type": "string"
            },
            {
              "internalType": "string",
              "name": "category",
              "type": "string"
            },
            {
              "internalType": "address",
              "name": "freelancer",
              "type": "address"
            },
            {
              "internalType": "address",
              "name": "client",
              "type": "address"
            },
            {
              "internalType": "uint256",
              "name": "reward",
              "type": "uint256"
            },
            {
              "internalType": "uint256",
              "name": "deadline",
              "type": "uint256"
            },
            {
              "internalType": "uint256",
              "name": "createdAt",
              "type": "uint256"
            },
            {
              "internalType": "string",
              "name": "url",
              "type": "string"
            },
            {
              "internalType": "enum Digilance.Status",
              "name": "status",
              "type": "uint8"
            },
            {
              "internalType": "uint256",
              "name": "positiveVotes",
              "type": "uint256"
            },
            {
              "internalType": "uint256",
              "name": "negativeVotes",
              "type": "uint256"
            }
          ],
          "internalType": "struct Digilance.Service[]",
          "name": "",
          "type": "tuple[]"
        }
      ],
      "stateMutability": "view",
      "type": "function"
    },
    {
      "inputs": [
        {
          "internalType": "address",
          "name": "user",
          "type": "address"
        }
      ],
      "name": "getAllUserServices",
      "outputs": [
        {
          "components": [
            {
              "internalType": "uint256",
              "name": "id",
              "type": "uint256"
            },
            {
              "internalType": "string",
              "name": "title",
              "type": "string"
            },
            {
              "internalType": "string",
              "name": "description",
              "type": "string"
            },
            {
              "internalType": "string",
              "name": "category",
              "type": "string"
            },
            {
              "internalType": "address",
              "name": "freelancer",
              "type": "address"
            },
            {
              "internalType": "address",
              "name": "client",
              "type": "address"
            },
            {
              "internalType": "uint256",
              "name": "reward",
              "type": "uint256"
            },
            {
              "internalType": "uint256",
              "name": "deadline",
              "type": "uint256"
            },
            {
              "internalType": "uint256",
              "name": "createdAt",
              "type": "uint256"
            },
            {
              "internalType": "string",
              "name": "url",
              "type": "string"
            },
            {
              "internalType": "enum Digilance.Status",
              "name": "status",
              "type": "uint8"
            },
            {
              "internalType": "uint256",
              "name": "positiveVotes",
              "type": "uint256"
            },
            {
              "internalType": "uint256",
              "name": "negativeVotes",
              "type": "uint256"
            }
          ],
          "internalType": "struct Digilance.Service[]",
          "name": "",
          "type": "tuple[]"
        }
      ],
      "stateMutability": "view",
      "type": "function"
    },
    {
      "inputs": [
        {
          "internalType": "uint256",
          "name": "n",
          "type": "uint256"
        }
      ],
      "name": "getLastNRequestedServices",
      "outputs": [
        {
          "components": [
            {
              "internalType": "uint256",
              "name": "id",
              "type": "uint256"
            },
            {
              "internalType": "string",
              "name": "title",
              "type": "string"
            },
            {
              "internalType": "string",
              "name": "description",
              "type": "string"
            },
            {
              "internalType": "string",
              "name": "category",
              "type": "string"
            },
            {
              "internalType": "address payable",
              "name": "client",
              "type": "address"
            },
            {
              "internalType": "address payable",
              "name": "freelancer",
              "type": "address"
            },
            {
              "internalType": "uint256",
              "name": "reward",
              "type": "uint256"
            },
            {
              "internalType": "uint256",
              "name": "deadline",
              "type": "uint256"
            },
            {
              "internalType": "uint256",
              "name": "createdAt",
              "type": "uint256"
            },
            {
              "internalType": "enum Digilance.Status",
              "name": "status",
              "type": "uint8"
            }
          ],
          "internalType": "struct Digilance.ServiceRequest[]",
          "name": "",
          "type": "tuple[]"
        }
      ],
      "stateMutability": "view",
      "type": "function"
    },
    {
      "inputs": [
        {
          "internalType": "string",
          "name": "title",
          "type": "string"
        },
        {
          "internalType": "string",
          "name": "description",
          "type": "string"
        },
        {
          "internalType": "string",
          "name": "category",
          "type": "string"
        },
        {
          "internalType": "uint256",
          "name": "deadline",
          "type": "uint256"
        },
        {
          "internalType": "uint256",
          "name": "reward",
          "type": "uint256"
        }
      ],
      "name": "requestService",
      "outputs": [],
      "stateMutability": "nonpayable",
      "type": "function"
    },
    {
      "inputs": [
        {
          "internalType": "string",
          "name": "title",
          "type": "string"
        }
      ],
      "name": "acceptServiceRequest",
      "outputs": [],
      "stateMutability": "nonpayable",
      "type": "function"
    },
    {
      "inputs": [
        {
          "internalType": "string",
          "name": "title",
          "type": "string"
        },
        {
          "internalType": "string",
          "name": "url",
          "type": "string"
        }
      ],
      "name": "submitWork",
      "outputs": [],
      "stateMutability": "nonpayable",
      "type": "function"
    },
    {
      "inputs": [
        {
          "internalType": "string",
          "name": "title",
          "type": "string"
        }
      ],
      "name": "approveService",
      "outputs": [],
      "stateMutability": "nonpayable",
      "type": "function"
    },
    {
      "inputs": [
        {
          "internalType": "uint256",
          "name": "_etherAmount",
          "type": "uint256"
        }
      ],
      "name": "purchaseFLT",
      "outputs": [],
      "stateMutability": "nonpayable",
      "type": "function"
    },
    {
      "inputs": [
        {
          "internalType": "string",
          "name": "title",
          "type": "string"
        },
        {
          "internalType": "bool",
          "name": "_isApproval",
          "type": "bool"
        }
      ],
      "name": "castVote",
      "outputs": [],
      "stateMutability": "nonpayable",
      "type": "function"
    },
    {
      "inputs": [
        {
          "internalType": "address",
          "name": "_voter",
          "type": "address"
        },
        {
          "internalType": "uint256",
          "name": "_rank",
          "type": "uint256"
        }
      ],
      "name": "addVoter",
      "outputs": [],
      "stateMutability": "nonpayable",
      "type": "function"
    },
    {
      "inputs": [
        {
          "internalType": "address",
          "name": "_voter",
          "type": "address"
        }
      ],
      "name": "removeVoter",
      "outputs": [],
      "stateMutability": "nonpayable",
      "type": "function"
    }
  ],
  "bytecode": "0x60806040526040518060400160405280600981526020017f446967696c616e63650000000000000000000000000000000000000000000000815250600090805190602001906200005192919062000175565b506000600360146101000a81548160ff02191690831515021790555060006006556000600b553480156200008457600080fd5b50604051620068a4380380620068a48339818101604052810190620000aa9190620002e8565b81600260006101000a81548173ffffffffffffffffffffffffffffffffffffffff021916908373ffffffffffffffffffffffffffffffffffffffff16021790555080600360006101000a81548173ffffffffffffffffffffffffffffffffffffffff021916908373ffffffffffffffffffffffffffffffffffffffff16021790555033600160006101000a81548173ffffffffffffffffffffffffffffffffffffffff021916908373ffffffffffffffffffffffffffffffffffffffff160217905550505062000394565b82805462000183906200035e565b90600052602060002090601f016020900481019282620001a75760008555620001f3565b82601f10620001c257805160ff1916838001178555620001f3565b82800160010185558215620001f3579182015b82811115620001f2578251825591602001919060010190620001d5565b5b50905062000202919062000206565b5090565b5b808211156200022157600081600090555060010162000207565b5090565b600080fd5b600073ffffffffffffffffffffffffffffffffffffffff82169050919050565b600062000257826200022a565b9050919050565b60006200026b826200024a565b9050919050565b6200027d816200025e565b81146200028957600080fd5b50565b6000815190506200029d8162000272565b92915050565b6000620002b0826200024a565b9050919050565b620002c281620002a3565b8114620002ce57600080fd5b50565b600081519050620002e281620002b7565b92915050565b6000806040838503121562000302576200030162000225565b5b600062000312858286016200028c565b92505060206200032585828601620002d1565b9150509250929050565b7f4e487b7100000000000000000000000000000000000000000000000000000000600052602260045260246000fd5b600060028204905060018216806200037757607f821691505b602082108114156200038e576200038d6200032f565b5b50919050565b61650080620003a46000396000f3fe608060405234801561001057600080fd5b50600436106101735760003560e01c806386c1ff68116100de578063be6c8dc911610097578063dbcce2b711610071578063dbcce2b714610469578063de32b68014610485578063e9265d56146104b5578063f1107676146104d157610173565b8063be6c8dc9146103e4578063c4d5e08914610400578063cd37f2da1461043057610173565b806386c1ff68146103105780638da5cb5b1461032c57806396e67a931461034a5780639f40cd791461037a578063a3ec138d14610398578063b9f05f2f146103c857610173565b80633b423cbf116101305780633b423cbf1461023c57806352d6a0a31461026c578063595aa7281461028a5780635f4feede146102a65780636e590dc1146102d6578063790b85ab146102f257610173565b806303b4caed1461017857806306fdde03146101aa5780630b150296146101c85780630bf08787146101e4578063199edd7a1461020257806321fe0f301461021e575b600080fd5b610192600480360381019061018d919061491a565b610501565b6040516101a193929190614960565b60405180910390f35b6101b261052b565b6040516101bf9190614a30565b60405180910390f35b6101e260048036038101906101dd9190614b87565b6105b9565b005b6101ec610e07565b6040516101f99190614bff565b60405180910390f35b61021c60048036038101906102179190614c52565b610e0d565b005b610226610fea565b6040516102339190614f7d565b60405180910390f35b61025660048036038101906102519190614fcb565b61147b565b60405161026391906151c3565b60405180910390f35b61027461196f565b6040516102819190614a30565b60405180910390f35b6102a4600480360381019061029f91906151e5565b611a3e565b005b6102c060048036038101906102bb919061491a565b611a95565b6040516102cd9190614f7d565b60405180910390f35b6102f060048036038101906102eb919061522e565b612557565b005b6102fa6129df565b6040516103079190614f7d565b60405180910390f35b61032a6004803603810190610325919061491a565b612f44565b005b610334613022565b604051610341919061530c565b60405180910390f35b610364600480360381019061035f919061491a565b613048565b60405161037191906153e9565b60405180910390f35b610382613160565b60405161038f9190614bff565b60405180910390f35b6103b260048036038101906103ad919061491a565b613166565b6040516103bf919061541a565b60405180910390f35b6103e260048036038101906103dd9190615435565b613186565b005b6103fe60048036038101906103f991906151e5565b61326f565b005b61041a60048036038101906104159190615435565b613832565b6040516104279190614a30565b60405180910390f35b61044a600480360381019061044591906151e5565b6138eb565b6040516104609a99989796959493929190615493565b60405180910390f35b610483600480360381019061047e91906151e5565b613b3a565b005b61049f600480360381019061049a919061491a565b61403c565b6040516104ac9190614a30565b60405180910390f35b6104cf60048036038101906104ca9190614fcb565b6140dc565b005b6104eb60048036038101906104e69190614fcb565b614566565b6040516104f89190614a30565b60405180910390f35b60056020528060005260406000206000915090508060000154908060010154908060020154905083565b6000805461053890615573565b80601f016020809104026020016040519081016040528092919081815260200182805461056490615573565b80156105b15780601f10610586576101008083540402835291602001916105b1565b820191906000526020600020905b81548152906001019060200180831161059457829003601f168201915b505050505081565b600073ffffffffffffffffffffffffffffffffffffffff16600c836040516105e191906155e1565b908152602001604051809103902060040160009054906101000a900473ffffffffffffffffffffffffffffffffffffffff1673ffffffffffffffffffffffffffffffffffffffff16141561066a576040517f08c379a000000000000000000000000000000000000000000000000000000000815260040161066190615690565b60405180910390fd5b6000600c8360405161067c91906155e1565b908152602001604051809103902060405180610140016040529081600082015481526020016001820180546106b090615573565b80601f01602080910402602001604051908101604052809291908181526020018280546106dc90615573565b80156107295780601f106106fe57610100808354040283529160200191610729565b820191906000526020600020905b81548152906001019060200180831161070c57829003601f168201915b5050505050815260200160028201805461074290615573565b80601f016020809104026020016040519081016040528092919081815260200182805461076e90615573565b80156107bb5780601f10610790576101008083540402835291602001916107bb565b820191906000526020600020905b81548152906001019060200180831161079e57829003601f168201915b505050505081526020016003820180546107d490615573565b80601f016020809104026020016040519081016040528092919081815260200182805461080090615573565b801561084d5780601f106108225761010080835404028352916020019161084d565b820191906000526020600020905b81548152906001019060200180831161083057829003601f168201915b505050505081526020016004820160009054906101000a900473ffffffffffffffffffffffffffffffffffffffff1673ffffffffffffffffffffffffffffffffffffffff1673ffffffffffffffffffffffffffffffffffffffff1681526020016005820160009054906101000a900473ffffffffffffffffffffffffffffffffffffffff1673ffffffffffffffffffffffffffffffffffffffff1673ffffffffffffffffffffffffffffffffffffffff1681526020016006820154815260200160078201548152602001600882015481526020016009820160009054906101000a900460ff16600681111561094557610944614d42565b5b600681111561095757610956614d42565b5b8152505090506003600c8460405161096f91906155e1565b908152602001604051809103902060090160006101000a81548160ff021916908360068111156109a2576109a1614d42565b5b021790555060003390506000826080015190508173ffffffffffffffffffffffffffffffffffffffff168360a0015173ffffffffffffffffffffffffffffffffffffffff1614610a27576040517f08c379a0000000000000000000000000000000000000000000000000000000008152600401610a1e90615722565b60405180910390fd5b6000610a31614606565b90506000610a488560e00151838760c0015161461b565b90508460c00151811015610b5e576000670de0b6b3a7640000828760c00151610a719190615771565b610a7b91906157a5565b9050600260009054906101000a900473ffffffffffffffffffffffffffffffffffffffff1673ffffffffffffffffffffffffffffffffffffffff1663a9059cbb85836040518363ffffffff1660e01b8152600401610ada92919061585e565b6020604051808303816000875af1158015610af9573d6000803e3d6000fd5b505050506040513d601f19601f82011682018060405250810190610b1d919061589c565b610b5c576040517f08c379a0000000000000000000000000000000000000000000000000000000008152600401610b5390615915565b60405180910390fd5b505b604051806101a00160405280600660008154610b7990615935565b919050819055815260200188815260200186604001518152602001866060015181526020018573ffffffffffffffffffffffffffffffffffffffff168152602001866080015173ffffffffffffffffffffffffffffffffffffffff1681526020018281526020018660e00151815260200183815260200187815260200160036006811115610c0a57610c09614d42565b5b8152602001600081526020016000815250600788604051610c2b91906155e1565b9081526020016040518091039020600082015181600001556020820151816001019080519060200190610c5f9291906146ce565b506040820151816002019080519060200190610c7c9291906146ce565b506060820151816003019080519060200190610c999291906146ce565b5060808201518160040160006101000a81548173ffffffffffffffffffffffffffffffffffffffff021916908373ffffffffffffffffffffffffffffffffffffffff16021790555060a08201518160050160006101000a81548173ffffffffffffffffffffffffffffffffffffffff021916908373ffffffffffffffffffffffffffffffffffffffff16021790555060c0820151816006015560e082015181600701556101008201518160080155610120820151816009019080519060200190610d649291906146ce565b5061014082015181600a0160006101000a81548160ff02191690836006811115610d9157610d90614d42565b5b021790555061016082015181600b015561018082015181600c01559050507fc0c4882174cc88040b234a9eb7a4fda59b0a5f36817c37de766be10a33685a1160065488838860e001518a898b6080015189604051610df698979695949392919061597e565b60405180910390a150505050505050565b60065481565b600460003373ffffffffffffffffffffffffffffffffffffffff1673ffffffffffffffffffffffffffffffffffffffff16815260200190815260200160002060009054906101000a900460ff16610e99576040517f08c379a0000000000000000000000000000000000000000000000000000000008152600401610e9090615a7c565b60405180910390fd5b6000600783604051610eab91906155e1565b90815260200160405180910390209050600081600001541415610f03576040517f08c379a0000000000000000000000000000000000000000000000000000000008152600401610efa90615ae8565b60405180910390fd5b8115610f285780600b016000815480929190610f1e90615935565b9190505550610f43565b80600c016000815480929190610f3d90615935565b91905055505b3373ffffffffffffffffffffffffffffffffffffffff1681600001547f5aaa9aad7433112662b9e5ae23b96ed62b00035f413ab908c55607284e0804e284604051610f8e919061541a565b60405180910390a3600381600b015410610fe5577fc6fa4d09b0636d5618375e68069bceae8e5efae0311daa8dd5ef761f595dca7981600001548260010133604051610fdc93929190615b9d565b60405180910390a15b505050565b6060600060065467ffffffffffffffff81111561100a57611009614a5c565b5b60405190808252806020026020018201604052801561104357816020015b611030614754565b8152602001906001900390816110285790505b50905060005b600654811015611473576007600860003373ffffffffffffffffffffffffffffffffffffffff1673ffffffffffffffffffffffffffffffffffffffff16815260200190815260200160002082815481106110a6576110a5615bdb565b5b906000526020600020016040516110bd9190615c89565b9081526020016040518091039020604051806101a0016040529081600082015481526020016001820180546110f190615573565b80601f016020809104026020016040519081016040528092919081815260200182805461111d90615573565b801561116a5780601f1061113f5761010080835404028352916020019161116a565b820191906000526020600020905b81548152906001019060200180831161114d57829003601f168201915b5050505050815260200160028201805461118390615573565b80601f01602080910402602001604051908101604052809291908181526020018280546111af90615573565b80156111fc5780601f106111d1576101008083540402835291602001916111fc565b820191906000526020600020905b8154815290600101906020018083116111df57829003601f168201915b5050505050815260200160038201805461121590615573565b80601f016020809104026020016040519081016040528092919081815260200182805461124190615573565b801561128e5780601f106112635761010080835404028352916020019161128e565b820191906000526020600020905b81548152906001019060200180831161127157829003601f168201915b505050505081526020016004820160009054906101000a900473ffffffffffffffffffffffffffffffffffffffff1673ffffffffffffffffffffffffffffffffffffffff1673ffffffffffffffffffffffffffffffffffffffff1681526020016005820160009054906101000a900473ffffffffffffffffffffffffffffffffffffffff1673ffffffffffffffffffffffffffffffffffffffff1673ffffffffffffffffffffffffffffffffffffffff16815260200160068201548152602001600782015481526020016008820154815260200160098201805461137190615573565b80601f016020809104026020016040519081016040528092919081815260200182805461139d90615573565b80156113ea5780601f106113bf576101008083540402835291602001916113ea565b820191906000526020600020905b8154815290600101906020018083116113cd57829003601f168201915b50505050508152602001600a820160009054906101000a900460ff16600681111561141857611417614d42565b5b600681111561142a57611429614d42565b5b8152602001600b8201548152602001600c8201548152505082828151811061145557611454615bdb565b5b6020026020010181905250808061146b90615935565b915050611049565b508091505090565b6060600b5482111561148d57600b5491505b60008267ffffffffffffffff8111156114a9576114a8614a5c565b5b6040519080825280602002602001820160405280156114dc57816020015b60608152602001906001900390816114c75790505b50905060005b838110156115c4576009600082600b546114fc9190615771565b8152602001908152602001600020805461151590615573565b80601f016020809104026020016040519081016040528092919081815260200182805461154190615573565b801561158e5780601f106115635761010080835404028352916020019161158e565b820191906000526020600020905b81548152906001019060200180831161157157829003601f168201915b50505050508282815181106115a6576115a5615bdb565b5b602002602001018190525080806115bc90615935565b9150506114e2565b506000815167ffffffffffffffff8111156115e2576115e1614a5c565b5b60405190808252806020026020018201604052801561161b57816020015b6116086147fa565b8152602001906001900390816116005790505b50905060005b825181101561196457600c83828151811061163f5761163e615bdb565b5b602002602001015160405161165491906155e1565b9081526020016040518091039020604051806101400160405290816000820154815260200160018201805461168890615573565b80601f01602080910402602001604051908101604052809291908181526020018280546116b490615573565b80156117015780601f106116d657610100808354040283529160200191611701565b820191906000526020600020905b8154815290600101906020018083116116e457829003601f168201915b5050505050815260200160028201805461171a90615573565b80601f016020809104026020016040519081016040528092919081815260200182805461174690615573565b80156117935780601f1061176857610100808354040283529160200191611793565b820191906000526020600020905b81548152906001019060200180831161177657829003601f168201915b505050505081526020016003820180546117ac90615573565b80601f01602080910402602001604051908101604052809291908181526020018280546117d890615573565b80156118255780601f106117fa57610100808354040283529160200191611825565b820191906000526020600020905b81548152906001019060200180831161180857829003601f168201915b505050505081526020016004820160009054906101000a900473ffffffffffffffffffffffffffffffffffffffff1673ffffffffffffffffffffffffffffffffffffffff1673ffffffffffffffffffffffffffffffffffffffff1681526020016005820160009054906101000a900473ffffffffffffffffffffffffffffffffffffffff1673ffffffffffffffffffffffffffffffffffffffff1673ffffffffffffffffffffffffffffffffffffffff1681526020016006820154815260200160078201548152602001600882015481526020016009820160009054906101000a900460ff16600681111561191d5761191c614d42565b5b600681111561192f5761192e614d42565b5b8152505082828151811061194657611945615bdb565b5b6020026020010181905250808061195c90615935565b915050611621565b508092505050919050565b6060600a60003373ffffffffffffffffffffffffffffffffffffffff1673ffffffffffffffffffffffffffffffffffffffff16815260200190815260200160002080546119bb90615573565b80601f01602080910402602001604051908101604052809291908181526020018280546119e790615573565b8015611a345780601f10611a0957610100808354040283529160200191611a34565b820191906000526020600020905b815481529060010190602001808311611a1757829003601f168201915b5050505050905090565b80600a60003373ffffffffffffffffffffffffffffffffffffffff1673ffffffffffffffffffffffffffffffffffffffff1681526020019081526020016000209080519060200190611a919291906146ce565b5050565b6060600160009054906101000a900473ffffffffffffffffffffffffffffffffffffffff1673ffffffffffffffffffffffffffffffffffffffff168273ffffffffffffffffffffffffffffffffffffffff161415611afc57611af56129df565b9050612552565b600080600190505b6001600b54611b139190615ca0565b811015611fe9576000600960008381526020019081526020016000208054611b3a90615573565b80601f0160208091040260200160405190810160405280929190818152602001828054611b6690615573565b8015611bb35780601f10611b8857610100808354040283529160200191611bb3565b820191906000526020600020905b815481529060010190602001808311611b9657829003601f168201915b505050505090506000600782604051611bcc91906155e1565b9081526020016040518091039020604051806101a001604052908160008201548152602001600182018054611c0090615573565b80601f0160208091040260200160405190810160405280929190818152602001828054611c2c90615573565b8015611c795780601f10611c4e57610100808354040283529160200191611c79565b820191906000526020600020905b815481529060010190602001808311611c5c57829003601f168201915b50505050508152602001600282018054611c9290615573565b80601f0160208091040260200160405190810160405280929190818152602001828054611cbe90615573565b8015611d0b5780601f10611ce057610100808354040283529160200191611d0b565b820191906000526020600020905b815481529060010190602001808311611cee57829003601f168201915b50505050508152602001600382018054611d2490615573565b80601f0160208091040260200160405190810160405280929190818152602001828054611d5090615573565b8015611d9d5780601f10611d7257610100808354040283529160200191611d9d565b820191906000526020600020905b815481529060010190602001808311611d8057829003601f168201915b505050505081526020016004820160009054906101000a900473ffffffffffffffffffffffffffffffffffffffff1673ffffffffffffffffffffffffffffffffffffffff1673ffffffffffffffffffffffffffffffffffffffff1681526020016005820160009054906101000a900473ffffffffffffffffffffffffffffffffffffffff1673ffffffffffffffffffffffffffffffffffffffff1673ffffffffffffffffffffffffffffffffffffffff168152602001600682015481526020016007820154815260200160088201548152602001600982018054611e8090615573565b80601f0160208091040260200160405190810160405280929190818152602001828054611eac90615573565b8015611ef95780601f10611ece57610100808354040283529160200191611ef9565b820191906000526020600020905b815481529060010190602001808311611edc57829003601f168201915b50505050508152602001600a820160009054906101000a900460ff166006811115611f2757611f26614d42565b5b6006811115611f3957611f38614d42565b5b8152602001600b8201548152602001600c8201548152505090508573ffffffffffffffffffffffffffffffffffffffff168160a0015173ffffffffffffffffffffffffffffffffffffffff161480611fc057508573ffffffffffffffffffffffffffffffffffffffff16816080015173ffffffffffffffffffffffffffffffffffffffff16145b15611fd4578380611fd090615935565b9450505b50508080611fe190615935565b915050611b04565b5060008167ffffffffffffffff81111561200657612005614a5c565b5b60405190808252806020026020018201604052801561203f57816020015b61202c614754565b8152602001906001900390816120245790505b5090506000600190505b6001600b546120589190615ca0565b81101561254b57600060096000838152602001908152602001600020805461207f90615573565b80601f01602080910402602001604051908101604052809291908181526020018280546120ab90615573565b80156120f85780601f106120cd576101008083540402835291602001916120f8565b820191906000526020600020905b8154815290600101906020018083116120db57829003601f168201915b50505050509050600060078260405161211191906155e1565b9081526020016040518091039020604051806101a00160405290816000820154815260200160018201805461214590615573565b80601f016020809104026020016040519081016040528092919081815260200182805461217190615573565b80156121be5780601f10612193576101008083540402835291602001916121be565b820191906000526020600020905b8154815290600101906020018083116121a157829003601f168201915b505050505081526020016002820180546121d790615573565b80601f016020809104026020016040519081016040528092919081815260200182805461220390615573565b80156122505780601f1061222557610100808354040283529160200191612250565b820191906000526020600020905b81548152906001019060200180831161223357829003601f168201915b5050505050815260200160038201805461226990615573565b80601f016020809104026020016040519081016040528092919081815260200182805461229590615573565b80156122e25780601f106122b7576101008083540402835291602001916122e2565b820191906000526020600020905b8154815290600101906020018083116122c557829003601f168201915b505050505081526020016004820160009054906101000a900473ffffffffffffffffffffffffffffffffffffffff1673ffffffffffffffffffffffffffffffffffffffff1673ffffffffffffffffffffffffffffffffffffffff1681526020016005820160009054906101000a900473ffffffffffffffffffffffffffffffffffffffff1673ffffffffffffffffffffffffffffffffffffffff1673ffffffffffffffffffffffffffffffffffffffff1681526020016006820154815260200160078201548152602001600882015481526020016009820180546123c590615573565b80601f01602080910402602001604051908101604052809291908181526020018280546123f190615573565b801561243e5780601f106124135761010080835404028352916020019161243e565b820191906000526020600020905b81548152906001019060200180831161242157829003601f168201915b50505050508152602001600a820160009054906101000a900460ff16600681111561246c5761246b614d42565b5b600681111561247e5761247d614d42565b5b8152602001600b8201548152602001600c8201548152505090508673ffffffffffffffffffffffffffffffffffffffff168160a0015173ffffffffffffffffffffffffffffffffffffffff16148061250557508673ffffffffffffffffffffffffffffffffffffffff16816080015173ffffffffffffffffffffffffffffffffffffffff16145b156125365780846001856125199190615771565b8151811061252a57612529615bdb565b5b60200260200101819052505b5050808061254390615935565b915050612049565b5080925050505b919050565b6000600681111561256b5761256a614d42565b5b600c8660405161257b91906155e1565b908152602001604051809103902060090160009054906101000a900460ff1660068111156125ac576125ab614d42565b5b146125ec576040517f08c379a00000000000000000000000000000000000000000000000000000000081526004016125e390615d42565b60405180910390fd5b600260009054906101000a900473ffffffffffffffffffffffffffffffffffffffff1673ffffffffffffffffffffffffffffffffffffffff166323b872dd3330670de0b6b3a76400008561264091906157a5565b6040518463ffffffff1660e01b815260040161265e93929190615d62565b6020604051808303816000875af115801561267d573d6000803e3d6000fd5b505050506040513d601f19601f820116820180604052508101906126a1919061589c565b6126e0576040517f08c379a00000000000000000000000000000000000000000000000000000000081526004016126d790615de5565b60405180910390fd5b6000339050604051806101400160405280600b6000815461270090615935565b91905081905581526020018781526020018681526020018581526020018273ffffffffffffffffffffffffffffffffffffffff168152602001600073ffffffffffffffffffffffffffffffffffffffff16815260200183815260200184815260200161276a614606565b81526020016001600681111561278357612782614d42565b5b815250600c8760405161279691906155e1565b90815260200160405180910390206000820151816000015560208201518160010190805190602001906127ca9291906146ce565b5060408201518160020190805190602001906127e79291906146ce565b5060608201518160030190805190602001906128049291906146ce565b5060808201518160040160006101000a81548173ffffffffffffffffffffffffffffffffffffffff021916908373ffffffffffffffffffffffffffffffffffffffff16021790555060a08201518160050160006101000a81548173ffffffffffffffffffffffffffffffffffffffff021916908373ffffffffffffffffffffffffffffffffffffffff16021790555060c0820151816006015560e0820151816007015561010082015181600801556101208201518160090160006101000a81548160ff021916908360068111156128de576128dd614d42565b5b0217905550905050600860008273ffffffffffffffffffffffffffffffffffffffff1673ffffffffffffffffffffffffffffffffffffffff1681526020019081526020016000208690806001815401808255809150506001900390600052602060002001600090919091909150908051906020019061295e9291906146ce565b508560096000600b54815260200190815260200160002090805190602001906129889291906146ce565b507fd7757b6ac59f1cf7d1d37bee14b01415d40a544922797b56cde69a53d2fda631600b548787878686896129bb614606565b6040516129cf989796959493929190615e05565b60405180910390a1505050505050565b6060600160009054906101000a900473ffffffffffffffffffffffffffffffffffffffff1673ffffffffffffffffffffffffffffffffffffffff163373ffffffffffffffffffffffffffffffffffffffff1614612a3b57600080fd5b600060065467ffffffffffffffff811115612a5957612a58614a5c565b5b604051908082528060200260200182016040528015612a9257816020015b612a7f614754565b815260200190600190039081612a775790505b509050600080600190505b6001600b54612aac9190615ca0565b811015612f3b576000600960008381526020019081526020016000208054612ad390615573565b80601f0160208091040260200160405190810160405280929190818152602001828054612aff90615573565b8015612b4c5780601f10612b2157610100808354040283529160200191612b4c565b820191906000526020600020905b815481529060010190602001808311612b2f57829003601f168201915b505050505090506000600782604051612b6591906155e1565b9081526020016040518091039020604051806101a001604052908160008201548152602001600182018054612b9990615573565b80601f0160208091040260200160405190810160405280929190818152602001828054612bc590615573565b8015612c125780601f10612be757610100808354040283529160200191612c12565b820191906000526020600020905b815481529060010190602001808311612bf557829003601f168201915b50505050508152602001600282018054612c2b90615573565b80601f0160208091040260200160405190810160405280929190818152602001828054612c5790615573565b8015612ca45780601f10612c7957610100808354040283529160200191612ca4565b820191906000526020600020905b815481529060010190602001808311612c8757829003601f168201915b50505050508152602001600382018054612cbd90615573565b80601f0160208091040260200160405190810160405280929190818152602001828054612ce990615573565b8015612d365780601f10612d0b57610100808354040283529160200191612d36565b820191906000526020600020905b815481529060010190602001808311612d1957829003601f168201915b505050505081526020016004820160009054906101000a900473ffffffffffffffffffffffffffffffffffffffff1673ffffffffffffffffffffffffffffffffffffffff1673ffffffffffffffffffffffffffffffffffffffff1681526020016005820160009054906101000a900473ffffffffffffffffffffffffffffffffffffffff1673ffffffffffffffffffffffffffffffffffffffff1673ffffffffffffffffffffffffffffffffffffffff168152602001600682015481526020016007820154815260200160088201548152602001600982018054612e1990615573565b80601f0160208091040260200160405190810160405280929190818152602001828054612e4590615573565b8015612e925780601f10612e6757610100808354040283529160200191612e92565b820191906000526020600020905b815481529060010190602001808311612e7557829003601f168201915b50505050508152602001600a820160009054906101000a900460ff166006811115612ec057612ebf614d42565b5b6006811115612ed257612ed1614d42565b5b8152602001600b8201548152602001600c8201548152505090506000816000015114612f265780858581518110612f0c57612f0b615bdb565b5b60200260200101819052508380612f2290615935565b9450505b50508080612f3390615935565b915050612a9d565b50819250505090565b600460008273ffffffffffffffffffffffffffffffffffffffff1673ffffffffffffffffffffffffffffffffffffffff16815260200190815260200160002060009054906101000a900460ff16612fd0576040517f08c379a0000000000000000000000000000000000000000000000000000000008152600401612fc790615ee4565b60405180910390fd5b600460008273ffffffffffffffffffffffffffffffffffffffff1673ffffffffffffffffffffffffffffffffffffffff16815260200190815260200160002060006101000a81549060ff021916905550565b600160009054906101000a900473ffffffffffffffffffffffffffffffffffffffff1681565b6060600860008373ffffffffffffffffffffffffffffffffffffffff1673ffffffffffffffffffffffffffffffffffffffff168152602001908152602001600020805480602002602001604051908101604052809291908181526020016000905b828210156131555783829060005260206000200180546130c890615573565b80601f01602080910402602001604051908101604052809291908181526020018280546130f490615573565b80156131415780601f1061311657610100808354040283529160200191613141565b820191906000526020600020905b81548152906001019060200180831161312457829003601f168201915b5050505050815260200190600101906130a9565b505050509050919050565b600b5481565b60046020528060005260406000206000915054906101000a900460ff1681565b600460008373ffffffffffffffffffffffffffffffffffffffff1673ffffffffffffffffffffffffffffffffffffffff16815260200190815260200160002060009054906101000a900460ff1615613213576040517f08c379a000000000000000000000000000000000000000000000000000000000815260040161320a90615f50565b60405180910390fd5b6001600460008473ffffffffffffffffffffffffffffffffffffffff1673ffffffffffffffffffffffffffffffffffffffff16815260200190815260200160002060006101000a81548160ff0219169083151502179055505050565b600060078260405161328191906155e1565b9081526020016040518091039020604051806101a0016040529081600082015481526020016001820180546132b590615573565b80601f01602080910402602001604051908101604052809291908181526020018280546132e190615573565b801561332e5780601f106133035761010080835404028352916020019161332e565b820191906000526020600020905b81548152906001019060200180831161331157829003601f168201915b5050505050815260200160028201805461334790615573565b80601f016020809104026020016040519081016040528092919081815260200182805461337390615573565b80156133c05780601f10613395576101008083540402835291602001916133c0565b820191906000526020600020905b8154815290600101906020018083116133a357829003601f168201915b505050505081526020016003820180546133d990615573565b80601f016020809104026020016040519081016040528092919081815260200182805461340590615573565b80156134525780601f1061342757610100808354040283529160200191613452565b820191906000526020600020905b81548152906001019060200180831161343557829003601f168201915b505050505081526020016004820160009054906101000a900473ffffffffffffffffffffffffffffffffffffffff1673ffffffffffffffffffffffffffffffffffffffff1673ffffffffffffffffffffffffffffffffffffffff1681526020016005820160009054906101000a900473ffffffffffffffffffffffffffffffffffffffff1673ffffffffffffffffffffffffffffffffffffffff1673ffffffffffffffffffffffffffffffffffffffff16815260200160068201548152602001600782015481526020016008820154815260200160098201805461353590615573565b80601f016020809104026020016040519081016040528092919081815260200182805461356190615573565b80156135ae5780601f10613583576101008083540402835291602001916135ae565b820191906000526020600020905b81548152906001019060200180831161359157829003601f168201915b50505050508152602001600a820160009054906101000a900460ff1660068111156135dc576135db614d42565b5b60068111156135ee576135ed614d42565b5b8152602001600b8201548152602001600c8201548152505090503373ffffffffffffffffffffffffffffffffffffffff168160a0015173ffffffffffffffffffffffffffffffffffffffff161461367a576040517f08c379a000000000000000000000000000000000000000000000000000000000815260040161367190615fe2565b60405180910390fd5b600560078360405161368c91906155e1565b9081526020016040518091039020600a0160006101000a81548160ff021916908360068111156136bf576136be614d42565b5b02179055506000670de0b6b3a764000090506000818360c001516136e391906157a5565b9050600083608001519050600260009054906101000a900473ffffffffffffffffffffffffffffffffffffffff1673ffffffffffffffffffffffffffffffffffffffff1663a9059cbb82846040518363ffffffff1660e01b815260040161374b929190616002565b6020604051808303816000875af115801561376a573d6000803e3d6000fd5b505050506040513d601f19601f8201168201806040525081019061378e919061589c565b6137cd576040517f08c379a00000000000000000000000000000000000000000000000000000000081526004016137c490615de5565b60405180910390fd5b7f29d337d224188d4929815f257a4aeefbc7460416c4baf63fc5c763cfe76b25fd846000015186866040015187606001518860c001518960a001518a60800151600560405161382398979695949392919061602b565b60405180910390a15050505050565b6008602052816000526040600020818154811061384e57600080fd5b9060005260206000200160009150915050805461386a90615573565b80601f016020809104026020016040519081016040528092919081815260200182805461389690615573565b80156138e35780601f106138b8576101008083540402835291602001916138e3565b820191906000526020600020905b8154815290600101906020018083116138c657829003601f168201915b505050505081565b600c8180516020810182018051848252602083016020850120818352809550505050505060009150905080600001549080600101805461392a90615573565b80601f016020809104026020016040519081016040528092919081815260200182805461395690615573565b80156139a35780601f10613978576101008083540402835291602001916139a3565b820191906000526020600020905b81548152906001019060200180831161398657829003601f168201915b5050505050908060020180546139b890615573565b80601f01602080910402602001604051908101604052809291908181526020018280546139e490615573565b8015613a315780601f10613a0657610100808354040283529160200191613a31565b820191906000526020600020905b815481529060010190602001808311613a1457829003601f168201915b505050505090806003018054613a4690615573565b80601f0160208091040260200160405190810160405280929190818152602001828054613a7290615573565b8015613abf5780601f10613a9457610100808354040283529160200191613abf565b820191906000526020600020905b815481529060010190602001808311613aa257829003601f168201915b5050505050908060040160009054906101000a900473ffffffffffffffffffffffffffffffffffffffff16908060050160009054906101000a900473ffffffffffffffffffffffffffffffffffffffff16908060060154908060070154908060080154908060090160009054906101000a900460ff1690508a565b60026006811115613b4e57613b4d614d42565b5b600c82604051613b5e91906155e1565b908152602001604051809103902060090160009054906101000a900460ff166006811115613b8f57613b8e614d42565b5b1415613bd0576040517f08c379a0000000000000000000000000000000000000000000000000000000008152600401613bc790616130565b60405180910390fd5b60003390506000600c83604051613be791906155e1565b90815260200160405180910390206040518061014001604052908160008201548152602001600182018054613c1b90615573565b80601f0160208091040260200160405190810160405280929190818152602001828054613c4790615573565b8015613c945780601f10613c6957610100808354040283529160200191613c94565b820191906000526020600020905b815481529060010190602001808311613c7757829003601f168201915b50505050508152602001600282018054613cad90615573565b80601f0160208091040260200160405190810160405280929190818152602001828054613cd990615573565b8015613d265780601f10613cfb57610100808354040283529160200191613d26565b820191906000526020600020905b815481529060010190602001808311613d0957829003601f168201915b50505050508152602001600382018054613d3f90615573565b80601f0160208091040260200160405190810160405280929190818152602001828054613d6b90615573565b8015613db85780601f10613d8d57610100808354040283529160200191613db8565b820191906000526020600020905b815481529060010190602001808311613d9b57829003601f168201915b505050505081526020016004820160009054906101000a900473ffffffffffffffffffffffffffffffffffffffff1673ffffffffffffffffffffffffffffffffffffffff1673ffffffffffffffffffffffffffffffffffffffff1681526020016005820160009054906101000a900473ffffffffffffffffffffffffffffffffffffffff1673ffffffffffffffffffffffffffffffffffffffff1673ffffffffffffffffffffffffffffffffffffffff1681526020016006820154815260200160078201548152602001600882015481526020016009820160009054906101000a900460ff166006811115613eb057613eaf614d42565b5b6006811115613ec257613ec1614d42565b5b8152505090503373ffffffffffffffffffffffffffffffffffffffff16816080015173ffffffffffffffffffffffffffffffffffffffff161415613f3b576040517f08c379a0000000000000000000000000000000000000000000000000000000008152600401613f32906161c2565b60405180910390fd5b81600c84604051613f4c91906155e1565b908152602001604051809103902060050160006101000a81548173ffffffffffffffffffffffffffffffffffffffff021916908373ffffffffffffffffffffffffffffffffffffffff1602179055506002600c84604051613fad91906155e1565b908152602001604051809103902060090160006101000a81548160ff02191690836006811115613fe057613fdf614d42565b5b02179055507f21531726048e3e5f967038c8cce7b5a9dcb99de3cedd2c8156e7f5c0a836df49816000015182602001518360c00151846080015186600260405161402f969594939291906161e2565b60405180910390a1505050565b600a602052806000526040600020600091509050805461405b90615573565b80601f016020809104026020016040519081016040528092919081815260200182805461408790615573565b80156140d45780601f106140a9576101008083540402835291602001916140d4565b820191906000526020600020905b8154815290600101906020018083116140b757829003601f168201915b505050505081565b6000811015614120576040517f08c379a000000000000000000000000000000000000000000000000000000000815260040161411790616296565b60405180910390fd5b600360149054906101000a900460ff1615614170576040517f08c379a000000000000000000000000000000000000000000000000000000000815260040161416790616328565b60405180910390fd5b6001600360146101000a81548160ff0219169083151502179055506000670de0b6b3a764000090506000600360009054906101000a900473ffffffffffffffffffffffffffffffffffffffff1673ffffffffffffffffffffffffffffffffffffffff166370a08231336040518263ffffffff1660e01b81526004016141f5919061530c565b602060405180830381865afa158015614212573d6000803e3d6000fd5b505050506040513d601f19601f82011682018060405250810190614236919061635d565b9050600360009054906101000a900473ffffffffffffffffffffffffffffffffffffffff1673ffffffffffffffffffffffffffffffffffffffff166323b872dd3330858761428491906157a5565b6040518463ffffffff1660e01b81526004016142a293929190615d62565b6020604051808303816000875af11580156142c1573d6000803e3d6000fd5b505050506040513d601f19601f820116820180604052508101906142e5919061589c565b614324576040517f08c379a000000000000000000000000000000000000000000000000000000000815260040161431b906163d6565b60405180910390fd5b818361433091906157a5565b8161433b9190615771565b600360009054906101000a900473ffffffffffffffffffffffffffffffffffffffff1673ffffffffffffffffffffffffffffffffffffffff166370a08231336040518263ffffffff1660e01b8152600401614396919061530c565b602060405180830381865afa1580156143b3573d6000803e3d6000fd5b505050506040513d601f19601f820116820180604052508101906143d7919061635d565b146143e5576143e46163f6565b5b6000606461ffff1683856143f991906157a5565b61440391906157a5565b9050600260009054906101000a900473ffffffffffffffffffffffffffffffffffffffff1673ffffffffffffffffffffffffffffffffffffffff166323b872dd600160009054906101000a900473ffffffffffffffffffffffffffffffffffffffff1633846040518463ffffffff1660e01b815260040161448693929190615d62565b6020604051808303816000875af11580156144a5573d6000803e3d6000fd5b505050506040513d601f19601f820116820180604052508101906144c9919061589c565b614508576040517f08c379a00000000000000000000000000000000000000000000000000000000081526004016144ff90615de5565b60405180910390fd5b6000600360146101000a81548160ff0219169083151502179055507f0c3aca8ae14b1c9419d2519ff68559aa888b6c8c1c46fdad55cec2c5774084af338583426040516145589493929190616425565b60405180910390a150505050565b6009602052806000526040600020600091509050805461458590615573565b80601f01602080910402602001604051908101604052809291908181526020018280546145b190615573565b80156145fe5780601f106145d3576101008083540402835291602001916145fe565b820191906000526020600020905b8154815290600101906020018083116145e157829003601f168201915b505050505081565b60006103e84261461691906157a5565b905090565b600083831161462c5781905061469b565b600061464361463b85876146a2565b6103e86146b8565b9050610e10811161466d5761466560088461465e91906157a5565b600a6146b8565b91505061469b565b612a3081116146955761468d60068461468691906157a5565b600a6146b8565b91505061469b565b60009150505b9392505050565b600081836146b09190615771565b905092915050565b600081836146c69190616499565b905092915050565b8280546146da90615573565b90600052602060002090601f0160209004810192826146fc5760008555614743565b82601f1061471557805160ff1916838001178555614743565b82800160010185558215614743579182015b82811115614742578251825591602001919060010190614727565b5b509050614750919061488b565b5090565b604051806101a0016040528060008152602001606081526020016060815260200160608152602001600073ffffffffffffffffffffffffffffffffffffffff168152602001600073ffffffffffffffffffffffffffffffffffffffff16815260200160008152602001600081526020016000815260200160608152602001600060068111156147e6576147e5614d42565b5b815260200160008152602001600081525090565b60405180610140016040528060008152602001606081526020016060815260200160608152602001600073ffffffffffffffffffffffffffffffffffffffff168152602001600073ffffffffffffffffffffffffffffffffffffffff1681526020016000815260200160008152602001600081526020016000600681111561488557614884614d42565b5b81525090565b5b808211156148a457600081600090555060010161488c565b5090565b6000604051905090565b600080fd5b600080fd5b600073ffffffffffffffffffffffffffffffffffffffff82169050919050565b60006148e7826148bc565b9050919050565b6148f7816148dc565b811461490257600080fd5b50565b600081359050614914816148ee565b92915050565b6000602082840312156149305761492f6148b2565b5b600061493e84828501614905565b91505092915050565b6000819050919050565b61495a81614947565b82525050565b60006060820190506149756000830186614951565b6149826020830185614951565b61498f6040830184614951565b949350505050565b600081519050919050565b600082825260208201905092915050565b60005b838110156149d15780820151818401526020810190506149b6565b838111156149e0576000848401525b50505050565b6000601f19601f8301169050919050565b6000614a0282614997565b614a0c81856149a2565b9350614a1c8185602086016149b3565b614a25816149e6565b840191505092915050565b60006020820190508181036000830152614a4a81846149f7565b905092915050565b600080fd5b600080fd5b7f4e487b7100000000000000000000000000000000000000000000000000000000600052604160045260246000fd5b614a94826149e6565b810181811067ffffffffffffffff82111715614ab357614ab2614a5c565b5b80604052505050565b6000614ac66148a8565b9050614ad28282614a8b565b919050565b600067ffffffffffffffff821115614af257614af1614a5c565b5b614afb826149e6565b9050602081019050919050565b82818337600083830152505050565b6000614b2a614b2584614ad7565b614abc565b905082815260208101848484011115614b4657614b45614a57565b5b614b51848285614b08565b509392505050565b600082601f830112614b6e57614b6d614a52565b5b8135614b7e848260208601614b17565b91505092915050565b60008060408385031215614b9e57614b9d6148b2565b5b600083013567ffffffffffffffff811115614bbc57614bbb6148b7565b5b614bc885828601614b59565b925050602083013567ffffffffffffffff811115614be957614be86148b7565b5b614bf585828601614b59565b9150509250929050565b6000602082019050614c146000830184614951565b92915050565b60008115159050919050565b614c2f81614c1a565b8114614c3a57600080fd5b50565b600081359050614c4c81614c26565b92915050565b60008060408385031215614c6957614c686148b2565b5b600083013567ffffffffffffffff811115614c8757614c866148b7565b5b614c9385828601614b59565b9250506020614ca485828601614c3d565b9150509250929050565b600081519050919050565b600082825260208201905092915050565b6000819050602082019050919050565b614ce381614947565b82525050565b600082825260208201905092915050565b6000614d0582614997565b614d0f8185614ce9565b9350614d1f8185602086016149b3565b614d28816149e6565b840191505092915050565b614d3c816148dc565b82525050565b7f4e487b7100000000000000000000000000000000000000000000000000000000600052602160045260246000fd5b60078110614d8257614d81614d42565b5b50565b6000819050614d9382614d71565b919050565b6000614da382614d85565b9050919050565b614db381614d98565b82525050565b60006101a083016000830151614dd26000860182614cda565b5060208301518482036020860152614dea8282614cfa565b91505060408301518482036040860152614e048282614cfa565b91505060608301518482036060860152614e1e8282614cfa565b9150506080830151614e336080860182614d33565b5060a0830151614e4660a0860182614d33565b5060c0830151614e5960c0860182614cda565b5060e0830151614e6c60e0860182614cda565b50610100830151614e81610100860182614cda565b50610120830151848203610120860152614e9b8282614cfa565b915050610140830151614eb2610140860182614daa565b50610160830151614ec7610160860182614cda565b50610180830151614edc610180860182614cda565b508091505092915050565b6000614ef38383614db9565b905092915050565b6000602082019050919050565b6000614f1382614cae565b614f1d8185614cb9565b935083602082028501614f2f85614cca565b8060005b85811015614f6b5784840389528151614f4c8582614ee7565b9450614f5783614efb565b925060208a01995050600181019050614f33565b50829750879550505050505092915050565b60006020820190508181036000830152614f978184614f08565b905092915050565b614fa881614947565b8114614fb357600080fd5b50565b600081359050614fc581614f9f565b92915050565b600060208284031215614fe157614fe06148b2565b5b6000614fef84828501614fb6565b91505092915050565b600081519050919050565b600082825260208201905092915050565b6000819050602082019050919050565b600061502f826148bc565b9050919050565b61503f81615024565b82525050565b60006101408301600083015161505e6000860182614cda565b50602083015184820360208601526150768282614cfa565b915050604083015184820360408601526150908282614cfa565b915050606083015184820360608601526150aa8282614cfa565b91505060808301516150bf6080860182615036565b5060a08301516150d260a0860182615036565b5060c08301516150e560c0860182614cda565b5060e08301516150f860e0860182614cda565b5061010083015161510d610100860182614cda565b50610120830151615122610120860182614daa565b508091505092915050565b60006151398383615045565b905092915050565b6000602082019050919050565b600061515982614ff8565b6151638185615003565b93508360208202850161517585615014565b8060005b858110156151b15784840389528151615192858261512d565b945061519d83615141565b925060208a01995050600181019050615179565b50829750879550505050505092915050565b600060208201905081810360008301526151dd818461514e565b905092915050565b6000602082840312156151fb576151fa6148b2565b5b600082013567ffffffffffffffff811115615219576152186148b7565b5b61522584828501614b59565b91505092915050565b600080600080600060a0868803121561524a576152496148b2565b5b600086013567ffffffffffffffff811115615268576152676148b7565b5b61527488828901614b59565b955050602086013567ffffffffffffffff811115615295576152946148b7565b5b6152a188828901614b59565b945050604086013567ffffffffffffffff8111156152c2576152c16148b7565b5b6152ce88828901614b59565b93505060606152df88828901614fb6565b92505060806152f088828901614fb6565b9150509295509295909350565b615306816148dc565b82525050565b600060208201905061532160008301846152fd565b92915050565b600081519050919050565b600082825260208201905092915050565b6000819050602082019050919050565b600061535f8383614cfa565b905092915050565b6000602082019050919050565b600061537f82615327565b6153898185615332565b93508360208202850161539b85615343565b8060005b858110156153d757848403895281516153b88582615353565b94506153c383615367565b925060208a0199505060018101905061539f565b50829750879550505050505092915050565b600060208201905081810360008301526154038184615374565b905092915050565b61541481614c1a565b82525050565b600060208201905061542f600083018461540b565b92915050565b6000806040838503121561544c5761544b6148b2565b5b600061545a85828601614905565b925050602061546b85828601614fb6565b9150509250929050565b61547e81615024565b82525050565b61548d81614d98565b82525050565b6000610140820190506154a9600083018d614951565b81810360208301526154bb818c6149f7565b905081810360408301526154cf818b6149f7565b905081810360608301526154e3818a6149f7565b90506154f26080830189615475565b6154ff60a0830188615475565b61550c60c0830187614951565b61551960e0830186614951565b615527610100830185614951565b615535610120830184615484565b9b9a5050505050505050505050565b7f4e487b7100000000000000000000000000000000000000000000000000000000600052602260045260246000fd5b6000600282049050600182168061558b57607f821691505b6020821081141561559f5761559e615544565b5b50919050565b600081905092915050565b60006155bb82614997565b6155c581856155a5565b93506155d58185602086016149b3565b80840191505092915050565b60006155ed82846155b0565b915081905092915050565b7f5365727669636520686173206e6f74206265656e207265717565737465642e2060008201527f4f6e6c79207265717565737465642073657276696365732063616e206265207360208201527f75626d69747465642e0000000000000000000000000000000000000000000000604082015250565b600061567a6049836149a2565b9150615685826155f8565b606082019050919050565b600060208201905081810360008301526156a98161566d565b9050919050565b7f4f6e6c79207468652061737369676e656420667265656c616e636572206f662060008201527f6120736572766963652063616e207375626d69742069742e0000000000000000602082015250565b600061570c6038836149a2565b9150615717826156b0565b604082019050919050565b6000602082019050818103600083015261573b816156ff565b9050919050565b7f4e487b7100000000000000000000000000000000000000000000000000000000600052601160045260246000fd5b600061577c82614947565b915061578783614947565b92508282101561579a57615799615742565b5b828203905092915050565b60006157b082614947565b91506157bb83614947565b9250817fffffffffffffffffffffffffffffffffffffffffffffffffffffffffffffffff04831182151516156157f4576157f3615742565b5b828202905092915050565b6000819050919050565b600061582461581f61581a846148bc565b6157ff565b6148bc565b9050919050565b600061583682615809565b9050919050565b60006158488261582b565b9050919050565b6158588161583d565b82525050565b6000604082019050615873600083018561584f565b6158806020830184614951565b9392505050565b60008151905061589681614c26565b92915050565b6000602082840312156158b2576158b16148b2565b5b60006158c084828501615887565b91505092915050565b7f526566756e64206661696c656400000000000000000000000000000000000000600082015250565b60006158ff600d836149a2565b915061590a826158c9565b602082019050919050565b6000602082019050818103600083015261592e816158f2565b9050919050565b600061594082614947565b91507fffffffffffffffffffffffffffffffffffffffffffffffffffffffffffffffff82141561597357615972615742565b5b600182019050919050565b600061010082019050615994600083018b614951565b81810360208301526159a6818a6149f7565b90506159b56040830189614951565b6159c26060830188614951565b81810360808301526159d481876149f7565b90506159e360a0830186615475565b6159f060c0830185615475565b6159fd60e0830184614951565b9998505050505050505050565b7f596f7520646f206e6f74206861766520766f74696e672070726976696c65676560008201527f732e000000000000000000000000000000000000000000000000000000000000602082015250565b6000615a666022836149a2565b9150615a7182615a0a565b604082019050919050565b60006020820190508181036000830152615a9581615a59565b9050919050565b7f576f726b20646f6573206e6f742065786973742e000000000000000000000000600082015250565b6000615ad26014836149a2565b9150615add82615a9c565b602082019050919050565b60006020820190508181036000830152615b0181615ac5565b9050919050565b60008190508160005260206000209050919050565b60008154615b2a81615573565b615b3481866149a2565b94506001821660008114615b4f5760018114615b6157615b94565b60ff1983168652602086019350615b94565b615b6a85615b08565b60005b83811015615b8c57815481890152600182019150602081019050615b6d565b808801955050505b50505092915050565b6000606082019050615bb26000830186614951565b8181036020830152615bc48185615b1d565b9050615bd360408301846152fd565b949350505050565b7f4e487b7100000000000000000000000000000000000000000000000000000000600052603260045260246000fd5b60008154615c1781615573565b615c2181866155a5565b94506001821660008114615c3c5760018114615c4d57615c80565b60ff19831686528186019350615c80565b615c5685615b08565b60005b83811015615c7857815481890152600182019150602081019050615c59565b838801955050505b50505092915050565b6000615c958284615c0a565b915081905092915050565b6000615cab82614947565b9150615cb683614947565b9250827fffffffffffffffffffffffffffffffffffffffffffffffffffffffffffffffff03821115615ceb57615cea615742565b5b828201905092915050565b7f41727469636c6520616c72656164792072657175657374656400000000000000600082015250565b6000615d2c6019836149a2565b9150615d3782615cf6565b602082019050919050565b60006020820190508181036000830152615d5b81615d1f565b9050919050565b6000606082019050615d7760008301866152fd565b615d8460208301856152fd565b615d916040830184614951565b949350505050565b7f464c54207472616e73666572206661696c656400000000000000000000000000600082015250565b6000615dcf6013836149a2565b9150615dda82615d99565b602082019050919050565b60006020820190508181036000830152615dfe81615dc2565b9050919050565b600061010082019050615e1b600083018b614951565b8181036020830152615e2d818a6149f7565b90508181036040830152615e4181896149f7565b90508181036060830152615e5581886149f7565b9050615e646080830187614951565b615e7160a0830186615475565b615e7e60c0830185614951565b615e8b60e0830184614951565b9998505050505050505050565b7f566f74657220646f6573206e6f742065786973742e0000000000000000000000600082015250565b6000615ece6015836149a2565b9150615ed982615e98565b602082019050919050565b60006020820190508181036000830152615efd81615ec1565b9050919050565b7f566f74657220616c7265616479206578697374732e0000000000000000000000600082015250565b6000615f3a6015836149a2565b9150615f4582615f04565b602082019050919050565b60006020820190508181036000830152615f6981615f2d565b9050919050565b7f4f6e6c792074686520706572736f6e2077686f2072657175657374656420746860008201527f6520736572766963652063616e20617070726f76652069742e00000000000000602082015250565b6000615fcc6039836149a2565b9150615fd782615f70565b604082019050919050565b60006020820190508181036000830152615ffb81615fbf565b9050919050565b600060408201905061601760008301856152fd565b6160246020830184614951565b9392505050565b600061010082019050616041600083018b614951565b8181036020830152616053818a6149f7565b9050818103604083015261606781896149f7565b9050818103606083015261607b81886149f7565b905061608a6080830187614951565b61609760a0830186615475565b6160a460c0830185615475565b6160b160e0830184615484565b9998505050505050505050565b7f536572766963652068617320616c7265616479206265656e206163636570746560008201527f642e000000000000000000000000000000000000000000000000000000000000602082015250565b600061611a6022836149a2565b9150616125826160be565b604082019050919050565b600060208201905081810360008301526161498161610d565b9050919050565b7f596f752063616e6e6f7420776f726b206f6e20796f757220736572766963652060008201527f726571756573742e000000000000000000000000000000000000000000000000602082015250565b60006161ac6028836149a2565b91506161b782616150565b604082019050919050565b600060208201905081810360008301526161db8161619f565b9050919050565b600060c0820190506161f76000830189614951565b818103602083015261620981886149f7565b90506162186040830187614951565b6162256060830186615475565b6162326080830185615475565b61623f60a0830184615484565b979650505050505050565b7f5472616e73666572206d6f756e742063616e6e6f742062652030000000000000600082015250565b6000616280601a836149a2565b915061628b8261624a565b602082019050919050565b600060208201905081810360008301526162af81616273565b9050919050565b7f5265656e7472616e63792070726f74656374696f6e3a20464c5420697320637560008201527f7272656e746c79206265696e6720707572636861736564000000000000000000602082015250565b60006163126037836149a2565b915061631d826162b6565b604082019050919050565b6000602082019050818103600083015261634181616305565b9050919050565b60008151905061635781614f9f565b92915050565b600060208284031215616373576163726148b2565b5b600061638184828501616348565b91505092915050565b7f4574686572546f6b656e207472616e73666572206661696c6564000000000000600082015250565b60006163c0601a836149a2565b91506163cb8261638a565b602082019050919050565b600060208201905081810360008301526163ef816163b3565b9050919050565b7f4e487b7100000000000000000000000000000000000000000000000000000000600052600160045260246000fd5b600060808201905061643a60008301876152fd565b6164476020830186614951565b6164546040830185614951565b6164616060830184614951565b95945050505050565b7f4e487b7100000000000000000000000000000000000000000000000000000000600052601260045260246000fd5b60006164a482614947565b91506164af83614947565b9250826164bf576164be61646a565b5b82820490509291505056fea264697066735822122051694d74057c19c43593b11ba9665a2154941df2735550aa93bd551706f4ee2864736f6c634300080b0033",
  "immutableReferences": {},
  "source": "pragma solidity >=0.8.1;\n// SPDX-License-Identifier: MIT\n\nimport \"./FLT.sol\";\nimport \"./Ether.sol\";\nimport \"./SafeMath.sol\";\n\ncontract Digilance {\n    string public name = \"Digilance\";\n    address public owner;\n    FLTToken private fLTToken;\n    Ether private etherToken;\n    uint16 internal constant TOKEN_PER_ETHER = 100;\n\tbool private purchasingFLT = false;\n\n    using SafeMath for uint256;\n\n    event WorkAccepted(\n        uint id,\n        string title,\n        string description,\n        string category,\n        uint reward,\n        address payable client,\n        address payable freelancer,\n        Status status\n    );\n\n    event WorkApproved(\n        uint id,\n        string title,\n        address reviewer\n    );\n\n    enum Status {\n        none,\n        requested,\n        accepted,\n        submitted,\n        approved,\n        completed,\n        canceled\n    }\n\n    struct Service {\n        uint id;\n        string title;\n        string description;\n        string category;\n        address freelancer;\n        address client;\n        uint reward;\n        uint deadline;\n        uint createdAt;\n        string url;\n        Status status;\n        uint256 positiveVotes;\n        uint256 negativeVotes;\n    }\n    \n    struct Voter {\n        uint rank;\n        uint reputation;\n        uint totalVotes;\n    }\n    \n    // mapping(uint256 => Work) public works;\n    mapping(address => bool) public voters;\n    mapping(address => Voter) public voterList;\n\n    uint public servicesCount = 0;\n    mapping(string => Service) services; // Have to remove public keyword\n\n    struct ServiceRequest {\n        uint id;\n        string title;\n        string description;\n        string category;\n        address payable client;\n        address payable freelancer;\n        uint256 reward;\n        uint256 deadline;\n        uint createdAt;\n        Status status;\n    }\n\n    mapping(address => string[]) public userTitles;\n    mapping(uint => string) public requestedTitles;\n    mapping(address => string) public accountTypes;\n\n    uint public serviceRequestsCount = 0;\n    mapping(string => ServiceRequest) public serviceRequests;\n\n    event ServiceRequestCreated(\n        uint id,\n        string title,\n        string description,\n        string category,\n        uint reward,\n        address payable client,\n        uint deadline,\n        uint createdAt\n    );\n\n    event ServiceRequestAccepted(\n        uint requestId,\n        string title,\n        uint reward,\n        address payable client,\n        address payable freelancer,\n        Status status\n    );\n\n    event WorkSubmitted(\n        uint workId,\n        string title,\n        uint reward,\n        uint deadline,\n        string url,\n        address payable freelancer,\n        address payable client,\n        uint submittedAt\n    );\n\n    event WorkAccepted(\n        uint workId,\n        string title,\n        uint reward,\n        uint deadline,\n        string url,\n        address payable freelancer,\n        address payable client\n    );\n\n\tevent FLTPurchased(\n        address buyer,\n        uint etherAmount,\n        uint FLTAmount,\n        uint timestamp\n    );\n\n    event VoteCasted(uint256 indexed workId, address indexed voter, bool isApproval);\n\n    constructor(FLTToken _fltToken, Ether _etherToken) {\n        fLTToken = _fltToken;\n        etherToken = _etherToken;\n        owner = msg.sender;\n    }\n\n    function getAllServices() public view returns (Service[] memory) {\n        Service[] memory allServices = new Service[](servicesCount);\n        for (uint i = 0; i < servicesCount; i++) {\n            allServices[i] = services[userTitles[msg.sender][i]];\n        }\n        return allServices;\n    }\n\n    function getAccountType() public view returns (string memory) {\n        return accountTypes[msg.sender];\n    }\n\n    function setAccountType(string memory accountType) public {\n        accountTypes[msg.sender] = accountType;\n    }\n\n\n    function getCurrentTime() internal view returns (uint256) {\n        return block.timestamp * 1000;\n    }\n\n    function getAllUserTitles(\n        address user\n    ) public view returns (string[] memory) {\n        return userTitles[user];\n    }\n\n    function getAllWorks() public view onlyOwner returns (Service[] memory) {\n        Service[] memory allServices = new Service[](servicesCount);\n        uint count = 0;\n        for (uint i = 1; i < serviceRequestsCount + 1; i++) {\n            string memory title = requestedTitles[i];\n            Service memory service = services[title];\n\n            if (service.id != 0) {\n                allServices[count] = service;\n                count++;\n            }\n        \n        }\n            return allServices;\n    }\n\n    function getAllUserServices(\n        address user\n    ) public view returns (Service[] memory) {\n\n        // If user is owner, get all services\n        if (user == owner) {\n            return getAllWorks();\n        }\n\n        uint count = 0;\n        for (uint i = 1; i < serviceRequestsCount + 1; i++) {\n            string memory title = requestedTitles[i];\n            Service memory service = services[title];\n            if (service.client == user || service.freelancer == user) {\n                count++;\n            }\n        }\n\n        Service[] memory userServices = new Service[](count);\n\n        for (uint i = 1; i < serviceRequestsCount + 1; i++) {\n            string memory title = requestedTitles[i];\n            Service memory service = services[title];\n            if (service.client == user || service.freelancer == user) {\n                // ???\n                userServices[i - 1] = service;\n            }\n        }\n        return userServices;\n    }\n\n    function getLastNRequestedServices(\n        uint n\n    ) public view returns (ServiceRequest[] memory) {\n        if (n > serviceRequestsCount) {\n            n = serviceRequestsCount;\n        }\n \n        string[] memory titles = new string[](n);\n\n        for (uint i = 0; i < n; i++) {\n            titles[i] = requestedTitles[serviceRequestsCount - i];\n        }\n        ServiceRequest[] memory requests = new ServiceRequest[](titles.length);\n\n        for (uint i = 0; i < titles.length; i++) {\n            requests[i] = serviceRequests[titles[i]];\n        }\n        return requests;\n    }\n\n    function requestService(\n        string memory title,\n        string memory description,\n        string memory category,\n        uint256 deadline,\n        uint256 reward\n    ) public {\n        require(\n            serviceRequests[title].status == Status.none,\n            \"Article already requested\"\n        );\n\n        // Only continue when we successfully debit the user\n        require(\n            fLTToken.transferFrom(\n                msg.sender,\n                address(this),\n                reward * (10 ** 18)\n            ),\n            \"FLT transfer failed\"\n        );\n\n        address payable client = payable(msg.sender);\n\n        serviceRequests[title] = ServiceRequest(\n            ++serviceRequestsCount,\n            title,\n            description,\n            category,\n            client,\n            payable(address(0)),\n            reward,\n            deadline,\n            getCurrentTime(),\n            Status.requested\n        );\n\n        // Push topic into the user's titles mapping\n        userTitles[client].push(title);\n\n        // Add title to requested titles mapping\n        requestedTitles[serviceRequestsCount] = title;\n\n        // Emit event\n        emit ServiceRequestCreated(\n            serviceRequestsCount,\n            title,\n            description,\n            category,\n            reward,\n            client,\n            deadline,\n            getCurrentTime()\n        );\n    }\n\n    function acceptServiceRequest(string memory title) public {\n        require(\n            serviceRequests[title].status != Status.accepted,\n            \"Service has already been accepted.\"\n        );\n        address payable freelancer = payable(msg.sender);\n        // Get service request\n        ServiceRequest memory request = serviceRequests[title];\n\n        require(\n            request.client != msg.sender,\n            \"You cannot work on your service request.\"\n        );\n\n        // Set the serviceRequest's properties\n        serviceRequests[title].freelancer = freelancer;\n        serviceRequests[title].status = Status.accepted;\n\n        // Emit event\n        emit ServiceRequestAccepted(\n            request.id,\n            request.title,\n            request.reward,\n            request.client,\n            freelancer,\n            Status.accepted\n        );\n    }\n\n\tmodifier onlyOwner {\n      require(msg.sender == owner);\n      _;\n    }\n\n    function calculateReward(\n        uint deadline,\n        uint submittedAt,\n        uint reward\n    ) private pure returns (uint) {\n        if (submittedAt <= deadline) {\n            // Submitted on time or before the deadline\n            return reward;\n        }\n        uint delay = SafeMath.div(SafeMath.sub(submittedAt, deadline), 1000);\n\n        if (delay <= 3600) {\n            // Submitted within one hour after the deadline\n            // Pay 80% of reward\n            return SafeMath.div(reward * 8, 10);\n        } else if (delay <= 10800) {\n            // Submitted within three hours after the deadline\n            // Pay 60% of reward\n            return SafeMath.div(reward * 6, 10);\n        }\n        // No reward for submissions later than three hours after the deadline\n        return 0;\n    }\n\n    function submitWork(\n        string memory title,\n        string memory url\n    ) public {\n        // Make sure the worker is submitting a work that has been requested\n        require(\n            serviceRequests[title].client != address(0),\n            \"Service has not been requested. Only requested services can be submitted.\"\n        );\n\n        // Get service request\n        ServiceRequest memory request = serviceRequests[title];\n        serviceRequests[title].status = Status.submitted; // Set status\n        address payable freelancer = payable(msg.sender);\n\t\taddress payable client = payable(request.client);\n\n        // Make sure the person working on the article is the one submitting it\n        require(\n            payable(request.freelancer) == freelancer,\n            \"Only the assigned freelancer of a service can submit it.\"\n        );\n\n        uint currentTime = getCurrentTime();\n\n        uint reward = calculateReward(\n            request.deadline,\n            currentTime,\n            request.reward\n        );\n\n        if (reward < request.reward) {\n            // Refund the client the difference since writer didn't submit on time.\n            uint refundAmount = (request.reward - reward) * (10**18);\n            require (\n                fLTToken.transfer(client, refundAmount),\n                \"Refund failed\"\n            );\n        }\n\n        // Voter[] memory reviewers = new Voter[](3);\n\n        services[title] = Service(\n            ++servicesCount,\n            title,\n            request.description,\n            request.category,\n            freelancer,\n            request.client,\n            // reviewers,\n            reward,\n            request.deadline,\n            currentTime,\n            url,\n            Status.submitted,\n            0,\n            0\n        );\n\n        emit WorkSubmitted(\n            servicesCount,\n            title,\n            reward,\n            request.deadline,\n            url,\n            freelancer,\n            request.client,\n            currentTime\n        );\n    }\n\n    function approveService(string memory title) public {\n        // Get service\n        Service memory service = services[title];\n\n        // Make sure only the requester of a service (client) can approve it\n        require(\n            service.client == msg.sender,\n            \"Only the person who requested the service can approve it.\"\n        );\n\n        // Approve service\n        services[title].status = Status.completed;\n\n        // Pay freelancer\n        uint num = 10 ** 18;\n        uint serviceReward = service.reward * num;\n        address freelancer = service.freelancer;\n        require(\n            fLTToken.transfer(freelancer, serviceReward),\n            \"FLT transfer failed\"\n        );\n\n        // Emit WorkAccepted event\n        emit WorkAccepted(\n            service.id,\n            title,\n            service.description,\n            service.category,\n            service.reward,\n            payable(service.client),\n            payable(service.freelancer),\n            Status.completed\n        );\n    }\n\n    function purchaseFLT(uint _etherAmount) public {\n        // Check if amount is greater than 0\n        if (_etherAmount < 0) {\n            revert(\"Transfer mount cannot be 0\");\n        }\n\n        require(!purchasingFLT, \"Reentrancy protection: FLT is currently being purchased\");\n        purchasingFLT = true;\n\n        uint num = 10 ** 18;\n\n        // Get user's ether balance before transfer\n        uint balanceBefore = etherToken.balanceOf(msg.sender);\n\n        // Transfer the required amount of etherToken from the buyer to the marketplace contract\n        require(\n            etherToken.transferFrom(\n                msg.sender,\n                address(this),\n                _etherAmount * num\n            ),\n            \"EtherToken transfer failed\"\n        );\n\n        // ensure that the transfer was successful \n        assert(etherToken.balanceOf(msg.sender) == balanceBefore - _etherAmount * num);\n\n        uint balance = _etherAmount * num * TOKEN_PER_ETHER;\n\n        // Transfer the required amount of FLT from the marketplace contract to the buyer\n        require(\n            fLTToken.transferFrom(owner, msg.sender, balance),\n            \"FLT transfer failed\"\n        );\n\n\t\tpurchasingFLT = false;\n        emit FLTPurchased(msg.sender, _etherAmount, balance, block.timestamp);\n    }\n    \n    modifier onlyVoters() {\n        require(voters[msg.sender], \"You do not have voting privileges.\");\n        _;\n    }\n    \n    function castVote(string memory title, bool _isApproval) external onlyVoters {\n        Service storage work = services[title];\n        require(work.id != 0, \"Work does not exist.\");\n        // require(!work.status == Status.approved, \"Work has already been approved.\");\n        \n        if (_isApproval) {\n            work.positiveVotes++;\n        } else {\n            work.negativeVotes++;\n        }\n        \n        emit VoteCasted(work.id, msg.sender, _isApproval);\n        \n        if (work.positiveVotes >= 3) {\n            // work.isApproved = true;\n            emit WorkApproved(work.id, work.title, msg.sender);\n        }\n    }\n    \n    function addVoter(address _voter, uint256 _rank) external {\n        require(!voters[_voter], \"Voter already exists.\");\n        voters[_voter] = true;\n        // voterRankings[_voter] = Voter(_rank);\n    }\n    \n    function removeVoter(address _voter) external {\n        require(voters[_voter], \"Voter does not exist.\");\n        delete voters[_voter];\n        // delete voterRankings[_voter];\n    }\n}\n",
  "sourcePath": "/Users/Gotzil08/Desktop/Hackathon/Digilance/src/contracts/Digilance.sol",
  "compiler": {
    "name": "solc",
    "version": "0.8.11+commit.d7f03943.Emscripten.clang"
  },
  "schemaVersion": "3.4.13",
  "updatedAt": "2023-06-25T10:16:38.918Z",
  "devdoc": {
    "kind": "dev",
    "methods": {},
    "version": 1
  },
  "userdoc": {
    "kind": "user",
    "methods": {},
    "version": 1
  }
}