{
  "contractName": "FreelanceMarketplace",
  "abi": [
    {
      "inputs": [
        {
          "internalType": "contract FLTToken",
          "name": "_fltToken",
          "type": "address"
        },
        {
          "internalType": "contract Ether",
          "name": "_etherToken",
          "type": "address"
        }
      ],
      "stateMutability": "nonpayable",
      "type": "constructor"
    },
    {
      "anonymous": false,
      "inputs": [
        {
          "indexed": false,
          "internalType": "uint256",
          "name": "articleId",
          "type": "uint256"
        },
        {
          "indexed": false,
          "internalType": "string",
          "name": "Topic",
          "type": "string"
        },
        {
          "indexed": false,
          "internalType": "uint256",
          "name": "reward",
          "type": "uint256"
        },
        {
          "indexed": false,
          "internalType": "uint256",
          "name": "deadline",
          "type": "uint256"
        },
        {
          "indexed": false,
          "internalType": "address payable",
          "name": "author",
          "type": "address"
        },
        {
          "indexed": false,
          "internalType": "address payable",
          "name": "client",
          "type": "address"
        }
      ],
      "name": "ArticleAccepted",
      "type": "event"
    },
    {
      "anonymous": false,
      "inputs": [
        {
          "indexed": false,
          "internalType": "uint256",
          "name": "id",
          "type": "uint256"
        },
        {
          "indexed": false,
          "internalType": "string",
          "name": "Topic",
          "type": "string"
        },
        {
          "indexed": false,
          "internalType": "uint256",
          "name": "reward",
          "type": "uint256"
        },
        {
          "indexed": false,
          "internalType": "address payable",
          "name": "client",
          "type": "address"
        },
        {
          "indexed": false,
          "internalType": "address payable",
          "name": "writer",
          "type": "address"
        },
        {
          "indexed": false,
          "internalType": "enum FreelanceMarketplace.Status",
          "name": "status",
          "type": "uint8"
        }
      ],
      "name": "ArticleApproved",
      "type": "event"
    },
    {
      "anonymous": false,
      "inputs": [
        {
          "indexed": false,
          "internalType": "uint256",
          "name": "requestId",
          "type": "uint256"
        },
        {
          "indexed": false,
          "internalType": "string",
          "name": "Topic",
          "type": "string"
        },
        {
          "indexed": false,
          "internalType": "uint256",
          "name": "reward",
          "type": "uint256"
        },
        {
          "indexed": false,
          "internalType": "address payable",
          "name": "client",
          "type": "address"
        },
        {
          "indexed": false,
          "internalType": "address payable",
          "name": "writer",
          "type": "address"
        },
        {
          "indexed": false,
          "internalType": "enum FreelanceMarketplace.Status",
          "name": "status",
          "type": "uint8"
        }
      ],
      "name": "ArticleRequestAccepted",
      "type": "event"
    },
    {
      "anonymous": false,
      "inputs": [
        {
          "indexed": false,
          "internalType": "uint256",
          "name": "id",
          "type": "uint256"
        },
        {
          "indexed": false,
          "internalType": "string",
          "name": "topic",
          "type": "string"
        },
        {
          "indexed": false,
          "internalType": "uint256",
          "name": "reward",
          "type": "uint256"
        },
        {
          "indexed": false,
          "internalType": "address payable",
          "name": "client",
          "type": "address"
        },
        {
          "indexed": false,
          "internalType": "uint256",
          "name": "deadline",
          "type": "uint256"
        },
        {
          "indexed": false,
          "internalType": "uint256",
          "name": "createdAt",
          "type": "uint256"
        }
      ],
      "name": "ArticleRequestCreated",
      "type": "event"
    },
    {
      "anonymous": false,
      "inputs": [
        {
          "indexed": false,
          "internalType": "uint256",
          "name": "articleId",
          "type": "uint256"
        },
        {
          "indexed": false,
          "internalType": "string",
          "name": "topic",
          "type": "string"
        },
        {
          "indexed": false,
          "internalType": "uint256",
          "name": "reward",
          "type": "uint256"
        },
        {
          "indexed": false,
          "internalType": "uint256",
          "name": "deadline",
          "type": "uint256"
        },
        {
          "indexed": false,
          "internalType": "string",
          "name": "content",
          "type": "string"
        },
        {
          "indexed": false,
          "internalType": "address payable",
          "name": "author",
          "type": "address"
        },
        {
          "indexed": false,
          "internalType": "address payable",
          "name": "client",
          "type": "address"
        },
        {
          "indexed": false,
          "internalType": "uint256",
          "name": "submittedAt",
          "type": "uint256"
        }
      ],
      "name": "ArticleSubmitted",
      "type": "event"
    },
    {
      "anonymous": false,
      "inputs": [
        {
          "indexed": false,
          "internalType": "address",
          "name": "buyer",
          "type": "address"
        },
        {
          "indexed": false,
          "internalType": "uint256",
          "name": "etherAmount",
          "type": "uint256"
        },
        {
          "indexed": false,
          "internalType": "uint256",
          "name": "FLTAmount",
          "type": "uint256"
        },
        {
          "indexed": false,
          "internalType": "uint256",
          "name": "timestamp",
          "type": "uint256"
        }
      ],
      "name": "FLTPurchased",
      "type": "event"
    },
    {
      "anonymous": false,
      "inputs": [
        {
          "indexed": false,
          "internalType": "address",
          "name": "recipient",
          "type": "address"
        },
        {
          "indexed": false,
          "internalType": "uint256",
          "name": "amount",
          "type": "uint256"
        }
      ],
      "name": "GiftedUser",
      "type": "event"
    },
    {
      "inputs": [
        {
          "internalType": "string",
          "name": "",
          "type": "string"
        }
      ],
      "name": "articleRequests",
      "outputs": [
        {
          "internalType": "uint256",
          "name": "id",
          "type": "uint256"
        },
        {
          "internalType": "string",
          "name": "topic",
          "type": "string"
        },
        {
          "internalType": "address payable",
          "name": "client",
          "type": "address"
        },
        {
          "internalType": "address payable",
          "name": "writer",
          "type": "address"
        },
        {
          "internalType": "uint256",
          "name": "reward",
          "type": "uint256"
        },
        {
          "internalType": "uint256",
          "name": "deadline",
          "type": "uint256"
        },
        {
          "internalType": "uint256",
          "name": "createdAt",
          "type": "uint256"
        },
        {
          "internalType": "enum FreelanceMarketplace.Status",
          "name": "status",
          "type": "uint8"
        }
      ],
      "stateMutability": "view",
      "type": "function",
      "constant": true
    },
    {
      "inputs": [],
      "name": "articleRequestsCount",
      "outputs": [
        {
          "internalType": "uint256",
          "name": "",
          "type": "uint256"
        }
      ],
      "stateMutability": "view",
      "type": "function",
      "constant": true
    },
    {
      "inputs": [
        {
          "internalType": "string",
          "name": "",
          "type": "string"
        }
      ],
      "name": "articles",
      "outputs": [
        {
          "internalType": "uint256",
          "name": "id",
          "type": "uint256"
        },
        {
          "internalType": "string",
          "name": "topic",
          "type": "string"
        },
        {
          "internalType": "address",
          "name": "author",
          "type": "address"
        },
        {
          "internalType": "address",
          "name": "owner",
          "type": "address"
        },
        {
          "internalType": "uint256",
          "name": "reward",
          "type": "uint256"
        },
        {
          "internalType": "uint256",
          "name": "deadline",
          "type": "uint256"
        },
        {
          "internalType": "uint256",
          "name": "createdAt",
          "type": "uint256"
        },
        {
          "internalType": "string",
          "name": "content",
          "type": "string"
        },
        {
          "internalType": "uint256",
          "name": "wordCount",
          "type": "uint256"
        },
        {
          "internalType": "enum FreelanceMarketplace.Status",
          "name": "status",
          "type": "uint8"
        }
      ],
      "stateMutability": "view",
      "type": "function",
      "constant": true
    },
    {
      "inputs": [],
      "name": "articlesCount",
      "outputs": [
        {
          "internalType": "uint256",
          "name": "",
          "type": "uint256"
        }
      ],
      "stateMutability": "view",
      "type": "function",
      "constant": true
    },
    {
      "inputs": [],
      "name": "name",
      "outputs": [
        {
          "internalType": "string",
          "name": "",
          "type": "string"
        }
      ],
      "stateMutability": "view",
      "type": "function",
      "constant": true
    },
    {
      "inputs": [],
      "name": "owner",
      "outputs": [
        {
          "internalType": "address",
          "name": "",
          "type": "address"
        }
      ],
      "stateMutability": "view",
      "type": "function",
      "constant": true
    },
    {
      "inputs": [
        {
          "internalType": "uint256",
          "name": "",
          "type": "uint256"
        }
      ],
      "name": "requestedTopics",
      "outputs": [
        {
          "internalType": "string",
          "name": "",
          "type": "string"
        }
      ],
      "stateMutability": "view",
      "type": "function",
      "constant": true
    },
    {
      "inputs": [
        {
          "internalType": "address",
          "name": "",
          "type": "address"
        },
        {
          "internalType": "uint256",
          "name": "",
          "type": "uint256"
        }
      ],
      "name": "userTopics",
      "outputs": [
        {
          "internalType": "string",
          "name": "",
          "type": "string"
        }
      ],
      "stateMutability": "view",
      "type": "function",
      "constant": true
    },
    {
      "inputs": [
        {
          "internalType": "address",
          "name": "user",
          "type": "address"
        }
      ],
      "name": "getAllUserTopics",
      "outputs": [
        {
          "internalType": "string[]",
          "name": "",
          "type": "string[]"
        }
      ],
      "stateMutability": "view",
      "type": "function",
      "constant": true
    },
    {
      "inputs": [
        {
          "internalType": "address",
          "name": "_recepient",
          "type": "address"
        },
        {
          "internalType": "uint256",
          "name": "_amount",
          "type": "uint256"
        }
      ],
      "name": "gitfUserWithTokens",
      "outputs": [],
      "stateMutability": "nonpayable",
      "type": "function"
    },
    {
      "inputs": [
        {
          "internalType": "address",
          "name": "user",
          "type": "address"
        }
      ],
      "name": "getAllUserArticles",
      "outputs": [
        {
          "components": [
            {
              "internalType": "uint256",
              "name": "id",
              "type": "uint256"
            },
            {
              "internalType": "string",
              "name": "topic",
              "type": "string"
            },
            {
              "internalType": "address",
              "name": "author",
              "type": "address"
            },
            {
              "internalType": "address",
              "name": "owner",
              "type": "address"
            },
            {
              "internalType": "uint256",
              "name": "reward",
              "type": "uint256"
            },
            {
              "internalType": "uint256",
              "name": "deadline",
              "type": "uint256"
            },
            {
              "internalType": "uint256",
              "name": "createdAt",
              "type": "uint256"
            },
            {
              "internalType": "string",
              "name": "content",
              "type": "string"
            },
            {
              "internalType": "uint256",
              "name": "wordCount",
              "type": "uint256"
            },
            {
              "internalType": "enum FreelanceMarketplace.Status",
              "name": "status",
              "type": "uint8"
            }
          ],
          "internalType": "struct FreelanceMarketplace.Article[]",
          "name": "",
          "type": "tuple[]"
        }
      ],
      "stateMutability": "view",
      "type": "function",
      "constant": true
    },
    {
      "inputs": [
        {
          "internalType": "uint256",
          "name": "n",
          "type": "uint256"
        }
      ],
      "name": "getLastNRequestedArticles",
      "outputs": [
        {
          "components": [
            {
              "internalType": "uint256",
              "name": "id",
              "type": "uint256"
            },
            {
              "internalType": "string",
              "name": "topic",
              "type": "string"
            },
            {
              "internalType": "address payable",
              "name": "client",
              "type": "address"
            },
            {
              "internalType": "address payable",
              "name": "writer",
              "type": "address"
            },
            {
              "internalType": "uint256",
              "name": "reward",
              "type": "uint256"
            },
            {
              "internalType": "uint256",
              "name": "deadline",
              "type": "uint256"
            },
            {
              "internalType": "uint256",
              "name": "createdAt",
              "type": "uint256"
            },
            {
              "internalType": "enum FreelanceMarketplace.Status",
              "name": "status",
              "type": "uint8"
            }
          ],
          "internalType": "struct FreelanceMarketplace.ArticleRequest[]",
          "name": "",
          "type": "tuple[]"
        }
      ],
      "stateMutability": "view",
      "type": "function",
      "constant": true
    },
    {
      "inputs": [
        {
          "internalType": "string",
          "name": "topic",
          "type": "string"
        },
        {
          "internalType": "uint256",
          "name": "deadline",
          "type": "uint256"
        },
        {
          "internalType": "uint256",
          "name": "reward",
          "type": "uint256"
        }
      ],
      "name": "requestArticle",
      "outputs": [],
      "stateMutability": "nonpayable",
      "type": "function"
    },
    {
      "inputs": [
        {
          "internalType": "string",
          "name": "topic",
          "type": "string"
        }
      ],
      "name": "acceptArticleRequest",
      "outputs": [],
      "stateMutability": "nonpayable",
      "type": "function"
    },
    {
      "inputs": [
        {
          "internalType": "string",
          "name": "topic",
          "type": "string"
        },
        {
          "internalType": "uint256",
          "name": "wordCount",
          "type": "uint256"
        },
        {
          "internalType": "string",
          "name": "content",
          "type": "string"
        }
      ],
      "name": "submitArticle",
      "outputs": [],
      "stateMutability": "nonpayable",
      "type": "function"
    },
    {
      "inputs": [
        {
          "internalType": "string",
          "name": "topic",
          "type": "string"
        }
      ],
      "name": "approveArticle",
      "outputs": [],
      "stateMutability": "nonpayable",
      "type": "function"
    },
    {
      "inputs": [
        {
          "internalType": "uint256",
          "name": "_etherAmount",
          "type": "uint256"
        }
      ],
      "name": "purchaseFLT",
      "outputs": [],
      "stateMutability": "nonpayable",
      "type": "function"
    }
  ],
  "bytecode": "0x60806040526040518060400160405280601581526020017f467265656c616e6365204d61726b6574706c6163650000000000000000000000815250600090805190602001906200005192919062000175565b506000600360146101000a81548160ff021916908315150217905550600060045560006008553480156200008457600080fd5b506040516200547b3803806200547b8339818101604052810190620000aa9190620002e8565b81600260006101000a81548173ffffffffffffffffffffffffffffffffffffffff021916908373ffffffffffffffffffffffffffffffffffffffff16021790555080600360006101000a81548173ffffffffffffffffffffffffffffffffffffffff021916908373ffffffffffffffffffffffffffffffffffffffff16021790555033600160006101000a81548173ffffffffffffffffffffffffffffffffffffffff021916908373ffffffffffffffffffffffffffffffffffffffff160217905550505062000394565b82805462000183906200035e565b90600052602060002090601f016020900481019282620001a75760008555620001f3565b82601f10620001c257805160ff1916838001178555620001f3565b82800160010185558215620001f3579182015b82811115620001f2578251825591602001919060010190620001d5565b5b50905062000202919062000206565b5090565b5b808211156200022157600081600090555060010162000207565b5090565b600080fd5b600073ffffffffffffffffffffffffffffffffffffffff82169050919050565b600062000257826200022a565b9050919050565b60006200026b826200024a565b9050919050565b6200027d816200025e565b81146200028957600080fd5b50565b6000815190506200029d8162000272565b92915050565b6000620002b0826200024a565b9050919050565b620002c281620002a3565b8114620002ce57600080fd5b50565b600081519050620002e281620002b7565b92915050565b6000806040838503121562000302576200030162000225565b5b600062000312858286016200028c565b92505060206200032585828601620002d1565b9150509250929050565b7f4e487b7100000000000000000000000000000000000000000000000000000000600052602260045260246000fd5b600060028204905060018216806200037757607f821691505b602082108114156200038e576200038d6200032f565b5b50919050565b6150d780620003a46000396000f3fe608060405234801561001057600080fd5b506004361061010b5760003560e01c8063848235ec116100a2578063bb396f3c11610071578063bb396f3c146102ee578063c0f0ca6c1461030c578063c7519f5514610328578063d98fcc6e14610358578063e9265d56146103745761010b565b8063848235ec146102685780638da5cb5b14610284578063a300f491146102a2578063a6d05b15146102be5761010b565b806344141470116100de5780634414147014610198578063509a9ca6146101cf57806366538bd8146101ff5780637c702b8d1461022f5761010b565b8063032eafa41461011057806306fdde031461012e5780630e5e16971461014c5780633d20893a1461017c575b600080fd5b610118610390565b604051610125919061394f565b60405180910390f35b610136610396565b6040516101439190613a03565b60405180910390f35b61016660048036038101906101619190613a97565b610424565b6040516101739190613d46565b60405180910390f35b61019660048036038101906101919190613ec9565b610c8a565b005b6101b260048036038101906101ad9190613f38565b6110c4565b6040516101c6989796959493929190613fb1565b60405180910390f35b6101e960048036038101906101e49190614036565b6111f7565b6040516101f69190613a03565b60405180910390f35b61021960048036038101906102149190614076565b6112b0565b6040516102269190613a03565b60405180910390f35b61024960048036038101906102449190613f38565b611350565b60405161025f9a999897969594939291906140b2565b60405180910390f35b610282600480360381019061027d9190614036565b611517565b005b61028c6116c4565b604051610299919061415c565b60405180910390f35b6102bc60048036038101906102b79190613f38565b6116ea565b005b6102d860048036038101906102d39190614076565b611ac8565b6040516102e591906142f8565b60405180910390f35b6102f6611e98565b604051610303919061394f565b60405180910390f35b61032660048036038101906103219190613f38565b611e9e565b005b610342600480360381019061033d9190613a97565b612327565b60405161034f91906143dc565b60405180910390f35b610372600480360381019061036d91906143fe565b61243f565b005b61038e60048036038101906103899190614076565b612b07565b005b60085481565b600080546103a3906144b8565b80601f01602080910402602001604051908101604052809291908181526020018280546103cf906144b8565b801561041c5780601f106103f15761010080835404028352916020019161041c565b820191906000526020600020905b8154815290600101906020018083116103ff57829003601f168201915b505050505081565b6060600160009054906101000a900473ffffffffffffffffffffffffffffffffffffffff1673ffffffffffffffffffffffffffffffffffffffff168273ffffffffffffffffffffffffffffffffffffffff16141561048b57610484612f91565b9050610c85565b600080600190505b60016008546104a29190614519565b81101561084a5760006007600083815260200190815260200160002080546104c9906144b8565b80601f01602080910402602001604051908101604052809291908181526020018280546104f5906144b8565b80156105425780601f1061051757610100808354040283529160200191610542565b820191906000526020600020905b81548152906001019060200180831161052557829003601f168201915b50505050509050600060058260405161055b91906145ab565b9081526020016040518091039020604051806101400160405290816000820154815260200160018201805461058f906144b8565b80601f01602080910402602001604051908101604052809291908181526020018280546105bb906144b8565b80156106085780601f106105dd57610100808354040283529160200191610608565b820191906000526020600020905b8154815290600101906020018083116105eb57829003601f168201915b505050505081526020016002820160009054906101000a900473ffffffffffffffffffffffffffffffffffffffff1673ffffffffffffffffffffffffffffffffffffffff1673ffffffffffffffffffffffffffffffffffffffff1681526020016003820160009054906101000a900473ffffffffffffffffffffffffffffffffffffffff1673ffffffffffffffffffffffffffffffffffffffff1673ffffffffffffffffffffffffffffffffffffffff1681526020016004820154815260200160058201548152602001600682015481526020016007820180546106eb906144b8565b80601f0160208091040260200160405190810160405280929190818152602001828054610717906144b8565b80156107645780601f1061073957610100808354040283529160200191610764565b820191906000526020600020905b81548152906001019060200180831161074757829003601f168201915b50505050508152602001600882015481526020016009820160009054906101000a900460ff16600581111561079c5761079b613b58565b5b60058111156107ae576107ad613b58565b5b8152505090508573ffffffffffffffffffffffffffffffffffffffff16816060015173ffffffffffffffffffffffffffffffffffffffff16148061082157508573ffffffffffffffffffffffffffffffffffffffff16816040015173ffffffffffffffffffffffffffffffffffffffff16145b15610835578380610831906145c2565b9450505b50508080610842906145c2565b915050610493565b5060008167ffffffffffffffff81111561086757610866613d72565b5b6040519080825280602002602001820160405280156108a057816020015b61088d61377f565b8152602001906001900390816108855790505b5090506000600190505b60016008546108b99190614519565b811015610c7e5760006007600083815260200190815260200160002080546108e0906144b8565b80601f016020809104026020016040519081016040528092919081815260200182805461090c906144b8565b80156109595780601f1061092e57610100808354040283529160200191610959565b820191906000526020600020905b81548152906001019060200180831161093c57829003601f168201915b50505050509050600060058260405161097291906145ab565b908152602001604051809103902060405180610140016040529081600082015481526020016001820180546109a6906144b8565b80601f01602080910402602001604051908101604052809291908181526020018280546109d2906144b8565b8015610a1f5780601f106109f457610100808354040283529160200191610a1f565b820191906000526020600020905b815481529060010190602001808311610a0257829003601f168201915b505050505081526020016002820160009054906101000a900473ffffffffffffffffffffffffffffffffffffffff1673ffffffffffffffffffffffffffffffffffffffff1673ffffffffffffffffffffffffffffffffffffffff1681526020016003820160009054906101000a900473ffffffffffffffffffffffffffffffffffffffff1673ffffffffffffffffffffffffffffffffffffffff1673ffffffffffffffffffffffffffffffffffffffff168152602001600482015481526020016005820154815260200160068201548152602001600782018054610b02906144b8565b80601f0160208091040260200160405190810160405280929190818152602001828054610b2e906144b8565b8015610b7b5780601f10610b5057610100808354040283529160200191610b7b565b820191906000526020600020905b815481529060010190602001808311610b5e57829003601f168201915b50505050508152602001600882015481526020016009820160009054906101000a900460ff166005811115610bb357610bb2613b58565b5b6005811115610bc557610bc4613b58565b5b8152505090508673ffffffffffffffffffffffffffffffffffffffff16816060015173ffffffffffffffffffffffffffffffffffffffff161480610c3857508673ffffffffffffffffffffffffffffffffffffffff16816040015173ffffffffffffffffffffffffffffffffffffffff16145b15610c69578084600185610c4c919061460b565b81518110610c5d57610c5c61463f565b5b60200260200101819052505b50508080610c76906145c2565b9150506108aa565b5080925050505b919050565b60006005811115610c9e57610c9d613b58565b5b600984604051610cae91906145ab565b908152602001604051809103902060070160009054906101000a900460ff166005811115610cdf57610cde613b58565b5b14610d1f576040517f08c379a0000000000000000000000000000000000000000000000000000000008152600401610d16906146ba565b60405180910390fd5b600260009054906101000a900473ffffffffffffffffffffffffffffffffffffffff1673ffffffffffffffffffffffffffffffffffffffff166323b872dd3330670de0b6b3a764000085610d7391906146da565b6040518463ffffffff1660e01b8152600401610d9193929190614734565b6020604051808303816000875af1158015610db0573d6000803e3d6000fd5b505050506040513d601f19601f82011682018060405250810190610dd491906147a3565b610e13576040517f08c379a0000000000000000000000000000000000000000000000000000000008152600401610e0a9061481c565b60405180910390fd5b6000339050604051806101000160405280600860008154610e33906145c2565b91905081905581526020018581526020018273ffffffffffffffffffffffffffffffffffffffff168152602001600073ffffffffffffffffffffffffffffffffffffffff168152602001838152602001848152602001610e916136b7565b815260200160016005811115610eaa57610ea9613b58565b5b815250600985604051610ebd91906145ab565b9081526020016040518091039020600082015181600001556020820151816001019080519060200190610ef1929190613810565b5060408201518160020160006101000a81548173ffffffffffffffffffffffffffffffffffffffff021916908373ffffffffffffffffffffffffffffffffffffffff16021790555060608201518160030160006101000a81548173ffffffffffffffffffffffffffffffffffffffff021916908373ffffffffffffffffffffffffffffffffffffffff1602179055506080820151816004015560a0820151816005015560c0820151816006015560e08201518160070160006101000a81548160ff02191690836005811115610fc957610fc8613b58565b5b0217905550905050600660008273ffffffffffffffffffffffffffffffffffffffff1673ffffffffffffffffffffffffffffffffffffffff16815260200190815260200160002084908060018154018082558091505060019003906000526020600020016000909190919091509080519060200190611049929190613810565b50836007600060085481526020019081526020016000209080519060200190611073929190613810565b507f7cb54f21f7d39bc8142693bfe40a340b39a9abfa1925e3aa6afe8033821807af600854858484876110a46136b7565b6040516110b69695949392919061483c565b60405180910390a150505050565b600981805160208101820180518482526020830160208501208183528095505050505050600091509050806000015490806001018054611103906144b8565b80601f016020809104026020016040519081016040528092919081815260200182805461112f906144b8565b801561117c5780601f106111515761010080835404028352916020019161117c565b820191906000526020600020905b81548152906001019060200180831161115f57829003601f168201915b5050505050908060020160009054906101000a900473ffffffffffffffffffffffffffffffffffffffff16908060030160009054906101000a900473ffffffffffffffffffffffffffffffffffffffff16908060040154908060050154908060060154908060070160009054906101000a900460ff16905088565b6006602052816000526040600020818154811061121357600080fd5b9060005260206000200160009150915050805461122f906144b8565b80601f016020809104026020016040519081016040528092919081815260200182805461125b906144b8565b80156112a85780601f1061127d576101008083540402835291602001916112a8565b820191906000526020600020905b81548152906001019060200180831161128b57829003601f168201915b505050505081565b600760205280600052604060002060009150905080546112cf906144b8565b80601f01602080910402602001604051908101604052809291908181526020018280546112fb906144b8565b80156113485780601f1061131d57610100808354040283529160200191611348565b820191906000526020600020905b81548152906001019060200180831161132b57829003601f168201915b505050505081565b60058180516020810182018051848252602083016020850120818352809550505050505060009150905080600001549080600101805461138f906144b8565b80601f01602080910402602001604051908101604052809291908181526020018280546113bb906144b8565b80156114085780601f106113dd57610100808354040283529160200191611408565b820191906000526020600020905b8154815290600101906020018083116113eb57829003601f168201915b5050505050908060020160009054906101000a900473ffffffffffffffffffffffffffffffffffffffff16908060030160009054906101000a900473ffffffffffffffffffffffffffffffffffffffff169080600401549080600501549080600601549080600701805461147b906144b8565b80601f01602080910402602001604051908101604052809291908181526020018280546114a7906144b8565b80156114f45780601f106114c9576101008083540402835291602001916114f4565b820191906000526020600020905b8154815290600101906020018083116114d757829003601f168201915b5050505050908060080154908060090160009054906101000a900460ff1690508a565b600160009054906101000a900473ffffffffffffffffffffffffffffffffffffffff1673ffffffffffffffffffffffffffffffffffffffff163373ffffffffffffffffffffffffffffffffffffffff161461157157600080fd5b600260009054906101000a900473ffffffffffffffffffffffffffffffffffffffff1673ffffffffffffffffffffffffffffffffffffffff166323b872dd600160009054906101000a900473ffffffffffffffffffffffffffffffffffffffff1684670de0b6b3a7640000856115e791906146da565b6040518463ffffffff1660e01b815260040161160593929190614734565b6020604051808303816000875af1158015611624573d6000803e3d6000fd5b505050506040513d601f19601f8201168201806040525081019061164891906147a3565b611687576040517f08c379a000000000000000000000000000000000000000000000000000000000815260040161167e906148f0565b60405180910390fd5b7ff1fe37455f15c9e00968a86b74f43d93d0ce4e316ef701840df224874ee7cfea82826040516116b8929190614910565b60405180910390a15050565b600160009054906101000a900473ffffffffffffffffffffffffffffffffffffffff1681565b600260058111156116fe576116fd613b58565b5b60098260405161170e91906145ab565b908152602001604051809103902060070160009054906101000a900460ff16600581111561173f5761173e613b58565b5b1415611780576040517f08c379a0000000000000000000000000000000000000000000000000000000008152600401611777906149ab565b60405180910390fd5b6000339050600060098360405161179791906145ab565b908152602001604051809103902060405180610100016040529081600082015481526020016001820180546117cb906144b8565b80601f01602080910402602001604051908101604052809291908181526020018280546117f7906144b8565b80156118445780601f1061181957610100808354040283529160200191611844565b820191906000526020600020905b81548152906001019060200180831161182757829003601f168201915b505050505081526020016002820160009054906101000a900473ffffffffffffffffffffffffffffffffffffffff1673ffffffffffffffffffffffffffffffffffffffff1673ffffffffffffffffffffffffffffffffffffffff1681526020016003820160009054906101000a900473ffffffffffffffffffffffffffffffffffffffff1673ffffffffffffffffffffffffffffffffffffffff1673ffffffffffffffffffffffffffffffffffffffff1681526020016004820154815260200160058201548152602001600682015481526020016007820160009054906101000a900460ff16600581111561193c5761193b613b58565b5b600581111561194e5761194d613b58565b5b8152505090503373ffffffffffffffffffffffffffffffffffffffff16816040015173ffffffffffffffffffffffffffffffffffffffff1614156119c7576040517f08c379a00000000000000000000000000000000000000000000000000000000081526004016119be90614a3d565b60405180910390fd5b816009846040516119d891906145ab565b908152602001604051809103902060030160006101000a81548173ffffffffffffffffffffffffffffffffffffffff021916908373ffffffffffffffffffffffffffffffffffffffff1602179055506002600984604051611a3991906145ab565b908152602001604051809103902060070160006101000a81548160ff02191690836005811115611a6c57611a6b613b58565b5b02179055507fa8efd5bc211c1d62cf6f51766d501af849b4990d1e6aff04d9e700488810d4e88160000151826020015183608001518460400151866002604051611abb96959493929190614a5d565b60405180910390a1505050565b6060600854821115611ada5760085491505b60008267ffffffffffffffff811115611af657611af5613d72565b5b604051908082528060200260200182016040528015611b2957816020015b6060815260200190600190039081611b145790505b50905060005b83811015611c11576007600082600854611b49919061460b565b81526020019081526020016000208054611b62906144b8565b80601f0160208091040260200160405190810160405280929190818152602001828054611b8e906144b8565b8015611bdb5780601f10611bb057610100808354040283529160200191611bdb565b820191906000526020600020905b815481529060010190602001808311611bbe57829003601f168201915b5050505050828281518110611bf357611bf261463f565b5b60200260200101819052508080611c09906145c2565b915050611b2f565b506000815167ffffffffffffffff811115611c2f57611c2e613d72565b5b604051908082528060200260200182016040528015611c6857816020015b611c55613896565b815260200190600190039081611c4d5790505b50905060005b8251811015611e8d576009838281518110611c8c57611c8b61463f565b5b6020026020010151604051611ca191906145ab565b90815260200160405180910390206040518061010001604052908160008201548152602001600182018054611cd5906144b8565b80601f0160208091040260200160405190810160405280929190818152602001828054611d01906144b8565b8015611d4e5780601f10611d2357610100808354040283529160200191611d4e565b820191906000526020600020905b815481529060010190602001808311611d3157829003601f168201915b505050505081526020016002820160009054906101000a900473ffffffffffffffffffffffffffffffffffffffff1673ffffffffffffffffffffffffffffffffffffffff1673ffffffffffffffffffffffffffffffffffffffff1681526020016003820160009054906101000a900473ffffffffffffffffffffffffffffffffffffffff1673ffffffffffffffffffffffffffffffffffffffff1673ffffffffffffffffffffffffffffffffffffffff1681526020016004820154815260200160058201548152602001600682015481526020016007820160009054906101000a900460ff166005811115611e4657611e45613b58565b5b6005811115611e5857611e57613b58565b5b81525050828281518110611e6f57611e6e61463f565b5b60200260200101819052508080611e85906145c2565b915050611c6e565b508092505050919050565b60045481565b6000600582604051611eb091906145ab565b90815260200160405180910390206040518061014001604052908160008201548152602001600182018054611ee4906144b8565b80601f0160208091040260200160405190810160405280929190818152602001828054611f10906144b8565b8015611f5d5780601f10611f3257610100808354040283529160200191611f5d565b820191906000526020600020905b815481529060010190602001808311611f4057829003601f168201915b505050505081526020016002820160009054906101000a900473ffffffffffffffffffffffffffffffffffffffff1673ffffffffffffffffffffffffffffffffffffffff1673ffffffffffffffffffffffffffffffffffffffff1681526020016003820160009054906101000a900473ffffffffffffffffffffffffffffffffffffffff1673ffffffffffffffffffffffffffffffffffffffff1673ffffffffffffffffffffffffffffffffffffffff168152602001600482015481526020016005820154815260200160068201548152602001600782018054612040906144b8565b80601f016020809104026020016040519081016040528092919081815260200182805461206c906144b8565b80156120b95780601f1061208e576101008083540402835291602001916120b9565b820191906000526020600020905b81548152906001019060200180831161209c57829003601f168201915b50505050508152602001600882015481526020016009820160009054906101000a900460ff1660058111156120f1576120f0613b58565b5b600581111561210357612102613b58565b5b8152505090503373ffffffffffffffffffffffffffffffffffffffff16816060015173ffffffffffffffffffffffffffffffffffffffff161461217b576040517f08c379a000000000000000000000000000000000000000000000000000000000815260040161217290614b37565b60405180910390fd5b600460058360405161218d91906145ab565b908152602001604051809103902060090160006101000a81548160ff021916908360058111156121c0576121bf613b58565b5b02179055506000670de0b6b3a7640000905060008183608001516121e491906146da565b9050600083604001519050600260009054906101000a900473ffffffffffffffffffffffffffffffffffffffff1673ffffffffffffffffffffffffffffffffffffffff1663a9059cbb82846040518363ffffffff1660e01b815260040161224c929190614910565b6020604051808303816000875af115801561226b573d6000803e3d6000fd5b505050506040513d601f19601f8201168201806040525081019061228f91906147a3565b6122ce576040517f08c379a00000000000000000000000000000000000000000000000000000000081526004016122c59061481c565b60405180910390fd5b7f9005128776bc2eda80cf5364470bfe4a5dbe8ae01b5ecfde47f2d16ffa11ef71846000015186866080015187606001518860400151600460405161231896959493929190614a5d565b60405180910390a15050505050565b6060600660008373ffffffffffffffffffffffffffffffffffffffff1673ffffffffffffffffffffffffffffffffffffffff168152602001908152602001600020805480602002602001604051908101604052809291908181526020016000905b828210156124345783829060005260206000200180546123a7906144b8565b80601f01602080910402602001604051908101604052809291908181526020018280546123d3906144b8565b80156124205780601f106123f557610100808354040283529160200191612420565b820191906000526020600020905b81548152906001019060200180831161240357829003601f168201915b505050505081526020019060010190612388565b505050509050919050565b600073ffffffffffffffffffffffffffffffffffffffff1660098460405161246791906145ab565b908152602001604051809103902060020160009054906101000a900473ffffffffffffffffffffffffffffffffffffffff1673ffffffffffffffffffffffffffffffffffffffff1614156124f0576040517f08c379a00000000000000000000000000000000000000000000000000000000081526004016124e790614bef565b60405180910390fd5b600060098460405161250291906145ab565b90815260200160405180910390206040518061010001604052908160008201548152602001600182018054612536906144b8565b80601f0160208091040260200160405190810160405280929190818152602001828054612562906144b8565b80156125af5780601f10612584576101008083540402835291602001916125af565b820191906000526020600020905b81548152906001019060200180831161259257829003601f168201915b505050505081526020016002820160009054906101000a900473ffffffffffffffffffffffffffffffffffffffff1673ffffffffffffffffffffffffffffffffffffffff1673ffffffffffffffffffffffffffffffffffffffff1681526020016003820160009054906101000a900473ffffffffffffffffffffffffffffffffffffffff1673ffffffffffffffffffffffffffffffffffffffff1673ffffffffffffffffffffffffffffffffffffffff1681526020016004820154815260200160058201548152602001600682015481526020016007820160009054906101000a900460ff1660058111156126a7576126a6613b58565b5b60058111156126b9576126b8613b58565b5b81525050905060036009856040516126d191906145ab565b908152602001604051809103902060070160006101000a81548160ff0219169083600581111561270457612703613b58565b5b021790555060003390506000826040015190508173ffffffffffffffffffffffffffffffffffffffff16836060015173ffffffffffffffffffffffffffffffffffffffff1614612789576040517f08c379a000000000000000000000000000000000000000000000000000000000815260040161278090614c81565b60405180910390fd5b60006127936136b7565b905060006127aa8560a001518387608001516136cc565b905084608001518110156128c0576000670de0b6b3a76400008287608001516127d3919061460b565b6127dd91906146da565b9050600260009054906101000a900473ffffffffffffffffffffffffffffffffffffffff1673ffffffffffffffffffffffffffffffffffffffff1663a9059cbb85836040518363ffffffff1660e01b815260040161283c929190614d00565b6020604051808303816000875af115801561285b573d6000803e3d6000fd5b505050506040513d601f19601f8201168201806040525081019061287f91906147a3565b6128be576040517f08c379a00000000000000000000000000000000000000000000000000000000081526004016128b590614d75565b60405180910390fd5b505b6040518061014001604052806004600081546128db906145c2565b91905081905581526020018981526020018573ffffffffffffffffffffffffffffffffffffffff168152602001866040015173ffffffffffffffffffffffffffffffffffffffff1681526020018281526020018660a0015181526020018381526020018781526020018881526020016003600581111561295e5761295d613b58565b5b81525060058960405161297191906145ab565b90815260200160405180910390206000820151816000015560208201518160010190805190602001906129a5929190613810565b5060408201518160020160006101000a81548173ffffffffffffffffffffffffffffffffffffffff021916908373ffffffffffffffffffffffffffffffffffffffff16021790555060608201518160030160006101000a81548173ffffffffffffffffffffffffffffffffffffffff021916908373ffffffffffffffffffffffffffffffffffffffff1602179055506080820151816004015560a0820151816005015560c0820151816006015560e0820151816007019080519060200190612a6e929190613810565b5061010082015181600801556101208201518160090160006101000a81548160ff02191690836005811115612aa657612aa5613b58565b5b02179055509050507f323c8dee50d250d479faaa7e78d0b46841b7db20689f4bde688acc6ff928629760045489838860a001518a898b6040015189604051612af5989796959493929190614d95565b60405180910390a15050505050505050565b6000811015612b4b576040517f08c379a0000000000000000000000000000000000000000000000000000000008152600401612b4290614e6d565b60405180910390fd5b600360149054906101000a900460ff1615612b9b576040517f08c379a0000000000000000000000000000000000000000000000000000000008152600401612b9290614eff565b60405180910390fd5b6001600360146101000a81548160ff0219169083151502179055506000670de0b6b3a764000090506000600360009054906101000a900473ffffffffffffffffffffffffffffffffffffffff1673ffffffffffffffffffffffffffffffffffffffff166370a08231336040518263ffffffff1660e01b8152600401612c20919061415c565b602060405180830381865afa158015612c3d573d6000803e3d6000fd5b505050506040513d601f19601f82011682018060405250810190612c619190614f34565b9050600360009054906101000a900473ffffffffffffffffffffffffffffffffffffffff1673ffffffffffffffffffffffffffffffffffffffff166323b872dd33308587612caf91906146da565b6040518463ffffffff1660e01b8152600401612ccd93929190614734565b6020604051808303816000875af1158015612cec573d6000803e3d6000fd5b505050506040513d601f19601f82011682018060405250810190612d1091906147a3565b612d4f576040517f08c379a0000000000000000000000000000000000000000000000000000000008152600401612d4690614fad565b60405180910390fd5b8183612d5b91906146da565b81612d66919061460b565b600360009054906101000a900473ffffffffffffffffffffffffffffffffffffffff1673ffffffffffffffffffffffffffffffffffffffff166370a08231336040518263ffffffff1660e01b8152600401612dc1919061415c565b602060405180830381865afa158015612dde573d6000803e3d6000fd5b505050506040513d601f19601f82011682018060405250810190612e029190614f34565b14612e1057612e0f614fcd565b5b6000606461ffff168385612e2491906146da565b612e2e91906146da565b9050600260009054906101000a900473ffffffffffffffffffffffffffffffffffffffff1673ffffffffffffffffffffffffffffffffffffffff166323b872dd600160009054906101000a900473ffffffffffffffffffffffffffffffffffffffff1633846040518463ffffffff1660e01b8152600401612eb193929190614734565b6020604051808303816000875af1158015612ed0573d6000803e3d6000fd5b505050506040513d601f19601f82011682018060405250810190612ef491906147a3565b612f33576040517f08c379a0000000000000000000000000000000000000000000000000000000008152600401612f2a9061481c565b60405180910390fd5b6000600360146101000a81548160ff0219169083151502179055507f0c3aca8ae14b1c9419d2519ff68559aa888b6c8c1c46fdad55cec2c5774084af33858342604051612f839493929190614ffc565b60405180910390a150505050565b6060600080600190505b6001600854612faa9190614519565b8110156132ec576000600760008381526020019081526020016000208054612fd1906144b8565b80601f0160208091040260200160405190810160405280929190818152602001828054612ffd906144b8565b801561304a5780601f1061301f5761010080835404028352916020019161304a565b820191906000526020600020905b81548152906001019060200180831161302d57829003601f168201915b50505050509050600060058260405161306391906145ab565b90815260200160405180910390206040518061014001604052908160008201548152602001600182018054613097906144b8565b80601f01602080910402602001604051908101604052809291908181526020018280546130c3906144b8565b80156131105780601f106130e557610100808354040283529160200191613110565b820191906000526020600020905b8154815290600101906020018083116130f357829003601f168201915b505050505081526020016002820160009054906101000a900473ffffffffffffffffffffffffffffffffffffffff1673ffffffffffffffffffffffffffffffffffffffff1673ffffffffffffffffffffffffffffffffffffffff1681526020016003820160009054906101000a900473ffffffffffffffffffffffffffffffffffffffff1673ffffffffffffffffffffffffffffffffffffffff1673ffffffffffffffffffffffffffffffffffffffff1681526020016004820154815260200160058201548152602001600682015481526020016007820180546131f3906144b8565b80601f016020809104026020016040519081016040528092919081815260200182805461321f906144b8565b801561326c5780601f106132415761010080835404028352916020019161326c565b820191906000526020600020905b81548152906001019060200180831161324f57829003601f168201915b50505050508152602001600882015481526020016009820160009054906101000a900460ff1660058111156132a4576132a3613b58565b5b60058111156132b6576132b5613b58565b5b81525050905060008160000151146132d75783806132d3906145c2565b9450505b505080806132e4906145c2565b915050612f9b565b5060008167ffffffffffffffff81111561330957613308613d72565b5b60405190808252806020026020018201604052801561334257816020015b61332f61377f565b8152602001906001900390816133275790505b5090506000600190505b600160085461335b9190614519565b8110156136ae576000600760008381526020019081526020016000208054613382906144b8565b80601f01602080910402602001604051908101604052809291908181526020018280546133ae906144b8565b80156133fb5780601f106133d0576101008083540402835291602001916133fb565b820191906000526020600020905b8154815290600101906020018083116133de57829003601f168201915b50505050509050600060058260405161341491906145ab565b90815260200160405180910390206040518061014001604052908160008201548152602001600182018054613448906144b8565b80601f0160208091040260200160405190810160405280929190818152602001828054613474906144b8565b80156134c15780601f10613496576101008083540402835291602001916134c1565b820191906000526020600020905b8154815290600101906020018083116134a457829003601f168201915b505050505081526020016002820160009054906101000a900473ffffffffffffffffffffffffffffffffffffffff1673ffffffffffffffffffffffffffffffffffffffff1673ffffffffffffffffffffffffffffffffffffffff1681526020016003820160009054906101000a900473ffffffffffffffffffffffffffffffffffffffff1673ffffffffffffffffffffffffffffffffffffffff1673ffffffffffffffffffffffffffffffffffffffff1681526020016004820154815260200160058201548152602001600682015481526020016007820180546135a4906144b8565b80601f01602080910402602001604051908101604052809291908181526020018280546135d0906144b8565b801561361d5780601f106135f25761010080835404028352916020019161361d565b820191906000526020600020905b81548152906001019060200180831161360057829003601f168201915b50505050508152602001600882015481526020016009820160009054906101000a900460ff16600581111561365557613654613b58565b5b600581111561366757613666613b58565b5b8152505090506000816000015114613699578084848151811061368d5761368c61463f565b5b60200260200101819052505b505080806136a6906145c2565b91505061334c565b50809250505090565b60006103e8426136c791906146da565b905090565b60008383116136dd5781905061374c565b60006136f46136ec8587613753565b6103e8613769565b9050610e10811161371e5761371660088461370f91906146da565b600a613769565b91505061374c565b612a3081116137465761373e60068461373791906146da565b600a613769565b91505061374c565b60009150505b9392505050565b60008183613761919061460b565b905092915050565b600081836137779190615070565b905092915050565b6040518061014001604052806000815260200160608152602001600073ffffffffffffffffffffffffffffffffffffffff168152602001600073ffffffffffffffffffffffffffffffffffffffff16815260200160008152602001600081526020016000815260200160608152602001600081526020016000600581111561380a57613809613b58565b5b81525090565b82805461381c906144b8565b90600052602060002090601f01602090048101928261383e5760008555613885565b82601f1061385757805160ff1916838001178555613885565b82800160010185558215613885579182015b82811115613884578251825591602001919060010190613869565b5b5090506138929190613919565b5090565b6040518061010001604052806000815260200160608152602001600073ffffffffffffffffffffffffffffffffffffffff168152602001600073ffffffffffffffffffffffffffffffffffffffff1681526020016000815260200160008152602001600081526020016000600581111561391357613912613b58565b5b81525090565b5b8082111561393257600081600090555060010161391a565b5090565b6000819050919050565b61394981613936565b82525050565b60006020820190506139646000830184613940565b92915050565b600081519050919050565b600082825260208201905092915050565b60005b838110156139a4578082015181840152602081019050613989565b838111156139b3576000848401525b50505050565b6000601f19601f8301169050919050565b60006139d58261396a565b6139df8185613975565b93506139ef818560208601613986565b6139f8816139b9565b840191505092915050565b60006020820190508181036000830152613a1d81846139ca565b905092915050565b6000604051905090565b600080fd5b600080fd5b600073ffffffffffffffffffffffffffffffffffffffff82169050919050565b6000613a6482613a39565b9050919050565b613a7481613a59565b8114613a7f57600080fd5b50565b600081359050613a9181613a6b565b92915050565b600060208284031215613aad57613aac613a2f565b5b6000613abb84828501613a82565b91505092915050565b600081519050919050565b600082825260208201905092915050565b6000819050602082019050919050565b613af981613936565b82525050565b600082825260208201905092915050565b6000613b1b8261396a565b613b258185613aff565b9350613b35818560208601613986565b613b3e816139b9565b840191505092915050565b613b5281613a59565b82525050565b7f4e487b7100000000000000000000000000000000000000000000000000000000600052602160045260246000fd5b60068110613b9857613b97613b58565b5b50565b6000819050613ba982613b87565b919050565b6000613bb982613b9b565b9050919050565b613bc981613bae565b82525050565b600061014083016000830151613be86000860182613af0565b5060208301518482036020860152613c008282613b10565b9150506040830151613c156040860182613b49565b506060830151613c286060860182613b49565b506080830151613c3b6080860182613af0565b5060a0830151613c4e60a0860182613af0565b5060c0830151613c6160c0860182613af0565b5060e083015184820360e0860152613c798282613b10565b915050610100830151613c90610100860182613af0565b50610120830151613ca5610120860182613bc0565b508091505092915050565b6000613cbc8383613bcf565b905092915050565b6000602082019050919050565b6000613cdc82613ac4565b613ce68185613acf565b935083602082028501613cf885613ae0565b8060005b85811015613d345784840389528151613d158582613cb0565b9450613d2083613cc4565b925060208a01995050600181019050613cfc565b50829750879550505050505092915050565b60006020820190508181036000830152613d608184613cd1565b905092915050565b600080fd5b600080fd5b7f4e487b7100000000000000000000000000000000000000000000000000000000600052604160045260246000fd5b613daa826139b9565b810181811067ffffffffffffffff82111715613dc957613dc8613d72565b5b80604052505050565b6000613ddc613a25565b9050613de88282613da1565b919050565b600067ffffffffffffffff821115613e0857613e07613d72565b5b613e11826139b9565b9050602081019050919050565b82818337600083830152505050565b6000613e40613e3b84613ded565b613dd2565b905082815260208101848484011115613e5c57613e5b613d6d565b5b613e67848285613e1e565b509392505050565b600082601f830112613e8457613e83613d68565b5b8135613e94848260208601613e2d565b91505092915050565b613ea681613936565b8114613eb157600080fd5b50565b600081359050613ec381613e9d565b92915050565b600080600060608486031215613ee257613ee1613a2f565b5b600084013567ffffffffffffffff811115613f0057613eff613a34565b5b613f0c86828701613e6f565b9350506020613f1d86828701613eb4565b9250506040613f2e86828701613eb4565b9150509250925092565b600060208284031215613f4e57613f4d613a2f565b5b600082013567ffffffffffffffff811115613f6c57613f6b613a34565b5b613f7884828501613e6f565b91505092915050565b6000613f8c82613a39565b9050919050565b613f9c81613f81565b82525050565b613fab81613bae565b82525050565b600061010082019050613fc7600083018b613940565b8181036020830152613fd9818a6139ca565b9050613fe86040830189613f93565b613ff56060830188613f93565b6140026080830187613940565b61400f60a0830186613940565b61401c60c0830185613940565b61402960e0830184613fa2565b9998505050505050505050565b6000806040838503121561404d5761404c613a2f565b5b600061405b85828601613a82565b925050602061406c85828601613eb4565b9150509250929050565b60006020828403121561408c5761408b613a2f565b5b600061409a84828501613eb4565b91505092915050565b6140ac81613a59565b82525050565b6000610140820190506140c8600083018d613940565b81810360208301526140da818c6139ca565b90506140e9604083018b6140a3565b6140f6606083018a6140a3565b6141036080830189613940565b61411060a0830188613940565b61411d60c0830187613940565b81810360e083015261412f81866139ca565b905061413f610100830185613940565b61414d610120830184613fa2565b9b9a5050505050505050505050565b600060208201905061417160008301846140a3565b92915050565b600081519050919050565b600082825260208201905092915050565b6000819050602082019050919050565b6141ac81613f81565b82525050565b6000610100830160008301516141cb6000860182613af0565b50602083015184820360208601526141e38282613b10565b91505060408301516141f860408601826141a3565b50606083015161420b60608601826141a3565b50608083015161421e6080860182613af0565b5060a083015161423160a0860182613af0565b5060c083015161424460c0860182613af0565b5060e083015161425760e0860182613bc0565b508091505092915050565b600061426e83836141b2565b905092915050565b6000602082019050919050565b600061428e82614177565b6142988185614182565b9350836020820285016142aa85614193565b8060005b858110156142e657848403895281516142c78582614262565b94506142d283614276565b925060208a019950506001810190506142ae565b50829750879550505050505092915050565b600060208201905081810360008301526143128184614283565b905092915050565b600081519050919050565b600082825260208201905092915050565b6000819050602082019050919050565b60006143528383613b10565b905092915050565b6000602082019050919050565b60006143728261431a565b61437c8185614325565b93508360208202850161438e85614336565b8060005b858110156143ca57848403895281516143ab8582614346565b94506143b68361435a565b925060208a01995050600181019050614392565b50829750879550505050505092915050565b600060208201905081810360008301526143f68184614367565b905092915050565b60008060006060848603121561441757614416613a2f565b5b600084013567ffffffffffffffff81111561443557614434613a34565b5b61444186828701613e6f565b935050602061445286828701613eb4565b925050604084013567ffffffffffffffff81111561447357614472613a34565b5b61447f86828701613e6f565b9150509250925092565b7f4e487b7100000000000000000000000000000000000000000000000000000000600052602260045260246000fd5b600060028204905060018216806144d057607f821691505b602082108114156144e4576144e3614489565b5b50919050565b7f4e487b7100000000000000000000000000000000000000000000000000000000600052601160045260246000fd5b600061452482613936565b915061452f83613936565b9250827fffffffffffffffffffffffffffffffffffffffffffffffffffffffffffffffff03821115614564576145636144ea565b5b828201905092915050565b600081905092915050565b60006145858261396a565b61458f818561456f565b935061459f818560208601613986565b80840191505092915050565b60006145b7828461457a565b915081905092915050565b60006145cd82613936565b91507fffffffffffffffffffffffffffffffffffffffffffffffffffffffffffffffff821415614600576145ff6144ea565b5b600182019050919050565b600061461682613936565b915061462183613936565b925082821015614634576146336144ea565b5b828203905092915050565b7f4e487b7100000000000000000000000000000000000000000000000000000000600052603260045260246000fd5b7f41727469636c6520616c72656164792072657175657374656400000000000000600082015250565b60006146a4601983613975565b91506146af8261466e565b602082019050919050565b600060208201905081810360008301526146d381614697565b9050919050565b60006146e582613936565b91506146f083613936565b9250817fffffffffffffffffffffffffffffffffffffffffffffffffffffffffffffffff0483118215151615614729576147286144ea565b5b828202905092915050565b600060608201905061474960008301866140a3565b61475660208301856140a3565b6147636040830184613940565b949350505050565b60008115159050919050565b6147808161476b565b811461478b57600080fd5b50565b60008151905061479d81614777565b92915050565b6000602082840312156147b9576147b8613a2f565b5b60006147c78482850161478e565b91505092915050565b7f464c54207472616e73666572206661696c656400000000000000000000000000600082015250565b6000614806601383613975565b9150614811826147d0565b602082019050919050565b60006020820190508181036000830152614835816147f9565b9050919050565b600060c0820190506148516000830189613940565b818103602083015261486381886139ca565b90506148726040830187613940565b61487f6060830186613f93565b61488c6080830185613940565b61489960a0830184613940565b979650505050505050565b7f4661696c656420746f2067696674207573657200000000000000000000000000600082015250565b60006148da601383613975565b91506148e5826148a4565b602082019050919050565b60006020820190508181036000830152614909816148cd565b9050919050565b600060408201905061492560008301856140a3565b6149326020830184613940565b9392505050565b7f41727469636c652068617320616c7265616479206265656e206163636570746560008201527f642e000000000000000000000000000000000000000000000000000000000000602082015250565b6000614995602283613975565b91506149a082614939565b604082019050919050565b600060208201905081810360008301526149c481614988565b9050919050565b7f596f752063616e6e6f7420776f726b206f6e20796f75722061727469636c652060008201527f726571756573742e000000000000000000000000000000000000000000000000602082015250565b6000614a27602883613975565b9150614a32826149cb565b604082019050919050565b60006020820190508181036000830152614a5681614a1a565b9050919050565b600060c082019050614a726000830189613940565b8181036020830152614a8481886139ca565b9050614a936040830187613940565b614aa06060830186613f93565b614aad6080830185613f93565b614aba60a0830184613fa2565b979650505050505050565b7f4f6e6c79206f776e6572206f662061727469636c652063616e20617070726f7660008201527f652069742e000000000000000000000000000000000000000000000000000000602082015250565b6000614b21602583613975565b9150614b2c82614ac5565b604082019050919050565b60006020820190508181036000830152614b5081614b14565b9050919050565b7f41727469636c6520686173206e6f74206265656e207265717565737465642e2060008201527f4f6e6c79207265717565737465642061727469636c65732063616e206265207360208201527f75626d69747465642e0000000000000000000000000000000000000000000000604082015250565b6000614bd9604983613975565b9150614be482614b57565b606082019050919050565b60006020820190508181036000830152614c0881614bcc565b9050919050565b7f4f6e6c792074686520777269746572206f6620616e2061727469636c6520636160008201527f6e207375626d69742069742e0000000000000000000000000000000000000000602082015250565b6000614c6b602c83613975565b9150614c7682614c0f565b604082019050919050565b60006020820190508181036000830152614c9a81614c5e565b9050919050565b6000819050919050565b6000614cc6614cc1614cbc84613a39565b614ca1565b613a39565b9050919050565b6000614cd882614cab565b9050919050565b6000614cea82614ccd565b9050919050565b614cfa81614cdf565b82525050565b6000604082019050614d156000830185614cf1565b614d226020830184613940565b9392505050565b7f526566756e64206661696c656400000000000000000000000000000000000000600082015250565b6000614d5f600d83613975565b9150614d6a82614d29565b602082019050919050565b60006020820190508181036000830152614d8e81614d52565b9050919050565b600061010082019050614dab600083018b613940565b8181036020830152614dbd818a6139ca565b9050614dcc6040830189613940565b614dd96060830188613940565b8181036080830152614deb81876139ca565b9050614dfa60a0830186613f93565b614e0760c0830185613f93565b614e1460e0830184613940565b9998505050505050505050565b7f5472616e73666572206d6f756e742063616e6e6f742062652030000000000000600082015250565b6000614e57601a83613975565b9150614e6282614e21565b602082019050919050565b60006020820190508181036000830152614e8681614e4a565b9050919050565b7f5265656e7472616e63792070726f74656374696f6e3a20464c5420697320637560008201527f7272656e746c79206265696e6720707572636861736564000000000000000000602082015250565b6000614ee9603783613975565b9150614ef482614e8d565b604082019050919050565b60006020820190508181036000830152614f1881614edc565b9050919050565b600081519050614f2e81613e9d565b92915050565b600060208284031215614f4a57614f49613a2f565b5b6000614f5884828501614f1f565b91505092915050565b7f4574686572546f6b656e207472616e73666572206661696c6564000000000000600082015250565b6000614f97601a83613975565b9150614fa282614f61565b602082019050919050565b60006020820190508181036000830152614fc681614f8a565b9050919050565b7f4e487b7100000000000000000000000000000000000000000000000000000000600052600160045260246000fd5b600060808201905061501160008301876140a3565b61501e6020830186613940565b61502b6040830185613940565b6150386060830184613940565b95945050505050565b7f4e487b7100000000000000000000000000000000000000000000000000000000600052601260045260246000fd5b600061507b82613936565b915061508683613936565b92508261509657615095615041565b5b82820490509291505056fea26469706673582212201014fb71c295f55a212337d0eb383847ab1e1bace30ac7b5add673f381480e6d64736f6c634300080b0033",
  "immutableReferences": {},
  "source": "pragma solidity >=0.8.1;\n// SPDX-License-Identifier: MIT\n\nimport \"./FLT.sol\";\nimport \"./Ether.sol\";\nimport \"./SafeMath.sol\";\n\ncontract FreelanceMarketplace {\n    string public name = \"Freelance Marketplace\";\n    address public owner;\n    FLTToken private fltToken;\n    Ether private etherToken;\n    uint16 internal constant TOKEN_PER_ETHER = 100;\n    bool private purchasingFLT = false;\n\n    using SafeMath for uint256;\n\n    event ArticleApproved(\n        uint id,\n        string Topic,\n        uint reward,\n        address payable client,\n        address payable writer,\n        Status status\n    );\n\n    enum Status {\n        none,\n        requested,\n        accepted,\n        submitted,\n        completed,\n        canceled\n    }\n\n    struct Article {\n        uint id;\n        string topic;\n        address author;\n        address owner;\n        uint reward;\n        uint deadline;\n        uint createdAt;\n        string content;\n        uint wordCount;\n        Status status;\n    }\n\n    uint public articlesCount = 0;\n    mapping(string => Article) public articles;\n\n    struct ArticleRequest {\n        uint id;\n        string topic;\n        address payable client;\n        address payable writer;\n        uint256 reward;\n        uint256 deadline;\n        uint createdAt;\n        Status status;\n    }\n\n    mapping(address => string[]) public userTopics;\n    mapping(uint => string) public requestedTopics;\n\n    uint public articleRequestsCount = 0;\n    mapping(string => ArticleRequest) public articleRequests;\n\n    event ArticleRequestCreated(\n        uint id,\n        string topic,\n        uint reward,\n        address payable client,\n        uint deadline,\n        uint createdAt\n    );\n\n    event ArticleRequestAccepted(\n        uint requestId,\n        string Topic,\n        uint reward,\n        address payable client,\n        address payable writer,\n        Status status\n    );\n\n    event ArticleSubmitted(\n        uint articleId,\n        string topic,\n        uint reward,\n        uint deadline,\n        string content,\n        address payable author,\n        address payable client,\n        uint submittedAt\n    );\n\n    event ArticleAccepted(\n        uint articleId,\n        string Topic,\n        uint reward,\n        uint deadline,\n        address payable author,\n        address payable client\n    );\n\n    event FLTPurchased(\n        address buyer,\n        uint etherAmount,\n        uint FLTAmount,\n        uint timestamp\n    );\n\n\t\tevent GiftedUser(\n\t\t\taddress recipient,\n\t\t\tuint amount\n\t\t);\n\n    constructor(FLTToken _fltToken, Ether _etherToken) {\n        fltToken = _fltToken;\n        etherToken = _etherToken;\n        owner = msg.sender;\n    }\n\n    function getCurrentTime() internal view returns (uint256) {\n        return block.timestamp * 1000;\n    }\n\n    function getAllUserTopics(\n        address user\n    ) public view returns (string[] memory) {\n        return userTopics[user];\n    }\n\n\t\tfunction gitfUserWithTokens(address _recepient, uint _amount) public onlyOwner {\n\t\t\trequire(fltToken.transferFrom(owner, _recepient, _amount * (10 ** 18)), \"Failed to gift user\");\n\n\t\t\temit GiftedUser(_recepient, _amount);\n\t\t}\n\n    function getAllArticles()\n        internal\n        view\n        returns (Article[] memory)\n    {\n        uint count = 0;\n        for (uint i = 1; i < articleRequestsCount + 1; i++) {\n            string memory topic = requestedTopics[i];\n            Article memory article = articles[topic];\n\n            if (article.id != 0) {\n                count++;\n            }\n        }\n        Article[] memory allArticles = new Article[](count);\n        for (uint i = 1; i < articleRequestsCount + 1; i++) {\n            string memory topic = requestedTopics[i];\n            Article memory article = articles[topic];\n\n            if (article.id != 0) {\n                allArticles[i]  = article;\n            }\n        }\n        return allArticles;\n    }\n\n    function getAllUserArticles(\n        address user\n    ) public view returns (Article[] memory) {\n        // If user is owner, get all articles\n        if (user == owner) {\n            return getAllArticles();\n        }\n\n        uint count = 0;\n        for (uint i = 1; i < articleRequestsCount + 1; i++) {\n            string memory topic = requestedTopics[i];\n            Article memory article = articles[topic];\n            if (article.owner == user || article.author == user) {\n                count++;\n            }\n        }\n\n        Article[] memory userArticles = new Article[](count);\n\n        for (uint i = 1; i < articleRequestsCount + 1; i++) {\n            string memory topic = requestedTopics[i];\n            Article memory article = articles[topic];\n            if (article.owner == user || article.author == user) {\n                userArticles[i - 1] = article;\n            }\n        }\n        return userArticles;\n    }\n\n    function getLastNRequestedArticles(\n        uint n\n    ) public view returns (ArticleRequest[] memory) {\n        if (n > articleRequestsCount) {\n            n = articleRequestsCount;\n        }\n        // string[] memory topics = new string[n];\n        string[] memory topics = new string[](n);\n\n        for (uint i = 0; i < n; i++) {\n            topics[i] = requestedTopics[articleRequestsCount - i];\n        }\n        ArticleRequest[] memory requests = new ArticleRequest[](topics.length);\n\n        for (uint i = 0; i < topics.length; i++) {\n            requests[i] = articleRequests[topics[i]];\n        }\n\n        return requests;\n    }\n\n    function requestArticle(\n        string memory topic,\n        uint256 deadline,\n        uint256 reward\n    ) public {\n        require(\n            articleRequests[topic].status == Status.none,\n            \"Article already requested\"\n        );\n\n        // Only continue when we successfully debit the user\n        require(\n            fltToken.transferFrom(\n                msg.sender,\n                address(this),\n                reward * (10 ** 18)\n            ),\n            \"FLT transfer failed\"\n        );\n\n        address payable client = payable(msg.sender);\n\n        articleRequests[topic] = ArticleRequest(\n            ++articleRequestsCount,\n            topic,\n            client,\n            payable(address(0)),\n            reward,\n            deadline,\n            getCurrentTime(),\n            Status.requested\n        );\n\n        // Push topic into the user's topics mapping\n        userTopics[client].push(topic);\n\n        // Add topic to requested topics mapping\n        requestedTopics[articleRequestsCount] = topic;\n\n        // Emit event\n        emit ArticleRequestCreated(\n            articleRequestsCount,\n            topic,\n            reward,\n            client,\n            deadline,\n            getCurrentTime()\n        );\n    }\n\n    function acceptArticleRequest(string memory topic) public {\n        require(\n            articleRequests[topic].status != Status.accepted,\n            \"Article has already been accepted.\"\n        );\n        address payable writer = payable(msg.sender);\n        // Get article request\n        ArticleRequest memory request = articleRequests[topic];\n\n        require(\n            request.client != msg.sender,\n            \"You cannot work on your article request.\"\n        );\n\n        // Set the articleRequest's properties\n        articleRequests[topic].writer = writer;\n        articleRequests[topic].status = Status.accepted;\n\n        // Emit event\n        emit ArticleRequestAccepted(\n            request.id,\n            request.topic,\n            request.reward,\n            request.client,\n            writer,\n            Status.accepted\n        );\n    }\n\n    modifier onlyOwner() {\n        require(msg.sender == owner);\n        _;\n    }\n\n    function calculateReward(\n        uint deadline,\n        uint submittedAt,\n        uint reward\n    ) private pure returns (uint) {\n        if (submittedAt <= deadline) {\n            // Submitted on time or before the deadline\n            return reward;\n        }\n        uint delay = SafeMath.div(SafeMath.sub(submittedAt, deadline), 1000);\n\n        if (delay <= 3600) {\n            // Submitted within one hour after the deadline\n            // Pay 80% of reward\n            return SafeMath.div(reward * 8, 10);\n        } else if (delay <= 10800) {\n            // Submitted within three hours after the deadline\n            // Pay 60% of reward\n            return SafeMath.div(reward * 6, 10);\n        }\n        // No reward for submissions later than three hours after the deadline\n        return 0;\n    }\n\n    function submitArticle(\n        string memory topic,\n        uint wordCount,\n        string memory content\n    ) public {\n        // Make sure the writer is submitting an article that has been requested\n        require(\n            articleRequests[topic].client != address(0),\n            \"Article has not been requested. Only requested articles can be submitted.\"\n        );\n\n        // Get article request\n        ArticleRequest memory request = articleRequests[topic];\n        articleRequests[topic].status = Status.submitted; // Set status\n        address payable writer = payable(msg.sender);\n        address payable client = payable(request.client);\n\n        // Make sure the person working on the article is the one submitting it\n        require(\n            payable(request.writer) == writer,\n            \"Only the writer of an article can submit it.\"\n        );\n\n        uint currentTime = getCurrentTime();\n\n        uint reward = calculateReward(\n            request.deadline,\n            currentTime,\n            request.reward\n        );\n\n        if (reward < request.reward) {\n            // Refund the client the difference since writer didn't submit on time.\n            uint refundAmount = (request.reward - reward) * (10 ** 18);\n            require(fltToken.transfer(client, refundAmount), \"Refund failed\");\n        }\n\n        articles[topic] = Article(\n            ++articlesCount,\n            topic,\n            writer,\n            request.client,\n            reward,\n            request.deadline,\n            currentTime,\n            content,\n            wordCount,\n            Status.submitted\n        );\n\n        emit ArticleSubmitted(\n            articlesCount,\n            topic,\n            reward,\n            request.deadline,\n            content,\n            writer,\n            request.client,\n            currentTime\n        );\n    }\n\n    function approveArticle(string memory topic) public {\n        // Get article\n        Article memory article = articles[topic];\n\n        // Make sure only owner of article (client) can approve it\n        require(\n            article.owner == msg.sender,\n            \"Only owner of article can approve it.\"\n        );\n\n        // Approve article\n        articles[topic].status = Status.completed;\n\n        // Pay freelancer\n        uint num = 10 ** 18;\n        uint articleReward = article.reward * num;\n        address freelancer = article.author;\n        require(\n            fltToken.transfer(freelancer, articleReward),\n            \"FLT transfer failed\"\n        );\n\n        // Emit ArticleApproved event\n        emit ArticleApproved(\n            article.id,\n            topic,\n            article.reward,\n            payable(article.owner),\n            payable(article.author),\n            Status.completed\n        );\n    }\n\n    function purchaseFLT(uint _etherAmount) public {\n        // Check if amount is greater than 0\n        if (_etherAmount < 0) {\n            revert(\"Transfer mount cannot be 0\");\n        }\n\n        require(\n            !purchasingFLT,\n            \"Reentrancy protection: FLT is currently being purchased\"\n        );\n        purchasingFLT = true;\n\n        uint num = 10 ** 18;\n\n        // Get user's ether balance before transfer\n        uint balanceBefore = etherToken.balanceOf(msg.sender);\n\n        // Transfer the required amount of etherToken from the buyer to the marketplace contract\n        require(\n            etherToken.transferFrom(\n                msg.sender,\n                address(this),\n                _etherAmount * num\n            ),\n            \"EtherToken transfer failed\"\n        );\n\n        // ensure that the transfer was successful\n        assert(\n            etherToken.balanceOf(msg.sender) ==\n                balanceBefore - _etherAmount * num\n        );\n\n        uint balance = _etherAmount * num * TOKEN_PER_ETHER;\n\n        // Transfer the required amount of FLT from the marketplace contract to the buyer\n        require(\n            fltToken.transferFrom(owner, msg.sender, balance),\n            \"FLT transfer failed\"\n        );\n\n        purchasingFLT = false;\n\n        emit FLTPurchased(msg.sender, _etherAmount, balance, block.timestamp);\n    }\n}\n",
  "sourcePath": "/Users/Gotzil08/Desktop/Blockchain Development/Freelance-Marketplace/freelance_marketplace/src/contracts/FreelanceMarketplace.sol",
  "compiler": {
    "name": "solc",
    "version": "0.8.11+commit.d7f03943.Emscripten.clang"
  },
  "schemaVersion": "3.4.13",
  "updatedAt": "2023-06-24T14:15:37.443Z",
  "networkType": "ethereum",
  "devdoc": {
    "kind": "dev",
    "methods": {},
    "version": 1
  },
  "userdoc": {
    "kind": "user",
    "methods": {},
    "version": 1
  }
}